{
	"data": {
		"bytecode": {
			"linkReferences": {},
			"object": "608060405234801561001057600080fd5b50612e27806100206000396000f3fe608060405234801561001057600080fd5b50600436106100a95760003560e01c80636a4af0fa116100715780636a4af0fa1461015057806380f2ff251461016e57806388409afa1461019e578063a5759814146101d6578063a5c499dd146101f4578063fdcaf76214610224576100a9565b80631246d1c3146100ae578063145e856a146100de5780632e8497cf146100fa57806330b8140014610118578063461c3c9b14610134575b600080fd5b6100c860048036038101906100c39190611a07565b610254565b6040516100d59190611a88565b60405180910390f35b6100f860048036038101906100f39190611e30565b6102af565b005b6101026105d4565b60405161010f9190611f6d565b60405180910390f35b610132600480360381019061012d9190612084565b6105da565b005b61014e60048036038101906101499190612084565b6107df565b005b6101586109f6565b6040516101659190612334565b60405180910390f35b61018860048036038101906101839190612382565b610d8d565b6040516101959190611f6d565b60405180910390f35b6101b860048036038101906101b391906123c2565b610fad565b6040516101cd99989796959493929190612448565b60405180910390f35b6101de611248565b6040516101eb9190612334565b60405180910390f35b61020e60048036038101906102099190611a07565b6116df565b60405161021b91906124f1565b60405180910390f35b61023e60048036038101906102399190611a07565b6117a2565b60405161024b9190612522565b60405180910390f35b6002602052816000526040600020818154811061027057600080fd5b9060005260206000209060020201600091509150508060000160009054906101000a900473ffffffffffffffffffffffffffffffffffffffff16905081565b4282116102f1576040517f08c379a00000000000000000000000000000000000000000000000000000000081526004016102e890612589565b60405180910390fd5b60058351101580156103055750600f835111155b610344576040517f08c379a000000000000000000000000000000000000000000000000000000000815260040161033b9061261b565b60405180910390fd5b604051806101200160405280888152602001878152602001868152602001858152602001845181526020018381526020018281526020013373ffffffffffffffffffffffffffffffffffffffff16815260200160001515815250600080600454815260200190815260200160002060008201518160000190816103c79190612847565b5060208201518160010190816103dd9190612847565b5060408201518160020190816103f39190612847565b5060608201518160030190816104099190612847565b506080820151816004015560a0820151816005015560c0820151816006015560e08201518160070160006101000a81548173ffffffffffffffffffffffffffffffffffffffff021916908373ffffffffffffffffffffffffffffffffffffffff1602179055506101008201518160070160146101000a81548160ff02191690831515021790555090505060005b835181101561053b576001600060045481526020019081526020016000208482815181106104c7576104c6612919565b5b60200260200101519080600181540180825580915050600190039060005260206000209060050201600090919091909150600082015181600001908161050d9190612847565b506020820151816001019060046105259291906117e5565b505050808061053390612977565b915050610496565b507fcd72a4dd76a0e2bafed5c285d3cdfafc81d08e179f8518fb116a65442dc2602c6004543360405161056f9291906129bf565b60405180910390a17f4c348724180cbe7a15593fb6ada180172e6ec6b66ed6d06de07f2c00bce39fc460045484516040516105ab9291906129e8565b60405180910390a1600460008154809291906105c690612977565b919050555050505050505050565b60045481565b600080600084815260200190815260200160002090508060050154421015610637576040517f08c379a000000000000000000000000000000000000000000000000000000000815260040161062e90612a5d565b60405180910390fd5b8060060154816005015461064b9190612a7d565b42111561068d576040517f08c379a000000000000000000000000000000000000000000000000000000000815260040161068490612afd565b60405180910390fd5b80600401548251146106d4576040517f08c379a00000000000000000000000000000000000000000000000000000000081526004016106cb90612b69565b60405180910390fd5b6002600084815260200190815260200160002060405180604001604052803373ffffffffffffffffffffffffffffffffffffffff16815260200184815250908060018154018082558091505060019003906000526020600020906002020160009091909190915060008201518160000160006101000a81548173ffffffffffffffffffffffffffffffffffffffff021916908373ffffffffffffffffffffffffffffffffffffffff160217905550602082015181600101908051906020019061079e929190611831565b5050507f1288e499c046649bd00968f05aa0ccdb5c7f7cd5cfcee2e9eb5e59400f15eee383336040516107d29291906129bf565b60405180910390a1505050565b600080600084815260200190815260200160002090508060070160009054906101000a900473ffffffffffffffffffffffffffffffffffffffff1673ffffffffffffffffffffffffffffffffffffffff163373ffffffffffffffffffffffffffffffffffffffff1614610887576040517f08c379a000000000000000000000000000000000000000000000000000000000815260040161087e90612bfb565b60405180910390fd5b8060060154816005015461089b9190612a7d565b42116108dc576040517f08c379a00000000000000000000000000000000000000000000000000000000081526004016108d390612c67565b60405180910390fd5b8060070160149054906101000a900460ff161561092e576040517f08c379a000000000000000000000000000000000000000000000000000000000815260040161092590612cd3565b60405180910390fd5b8060040154825114610975576040517f08c379a000000000000000000000000000000000000000000000000000000000815260040161096c90612d65565b60405180910390fd5b8160036000858152602001908152602001600020908051906020019061099c929190611831565b5060018160070160146101000a81548160ff0219169083151502179055507fb452b9892fadc2bd3be2c020aba6dfc078a09a8aef521f15250ebcac55fd3957836040516109e99190611f6d565b60405180910390a1505050565b6060600060045467ffffffffffffffff811115610a1657610a15611abe565b5b604051908082528060200260200182016040528015610a4f57816020015b610a3c6118d8565b815260200190600190039081610a345790505b50905060005b600454811015610d855760008082815260200190815260200160002060405180610120016040529081600082018054610a8d9061266a565b80601f0160208091040260200160405190810160405280929190818152602001828054610ab99061266a565b8015610b065780601f10610adb57610100808354040283529160200191610b06565b820191906000526020600020905b815481529060010190602001808311610ae957829003601f168201915b50505050508152602001600182018054610b1f9061266a565b80601f0160208091040260200160405190810160405280929190818152602001828054610b4b9061266a565b8015610b985780601f10610b6d57610100808354040283529160200191610b98565b820191906000526020600020905b815481529060010190602001808311610b7b57829003601f168201915b50505050508152602001600282018054610bb19061266a565b80601f0160208091040260200160405190810160405280929190818152602001828054610bdd9061266a565b8015610c2a5780601f10610bff57610100808354040283529160200191610c2a565b820191906000526020600020905b815481529060010190602001808311610c0d57829003601f168201915b50505050508152602001600382018054610c439061266a565b80601f0160208091040260200160405190810160405280929190818152602001828054610c6f9061266a565b8015610cbc5780601f10610c9157610100808354040283529160200191610cbc565b820191906000526020600020905b815481529060010190602001808311610c9f57829003601f168201915b505050505081526020016004820154815260200160058201548152602001600682015481526020016007820160009054906101000a900473ffffffffffffffffffffffffffffffffffffffff1673ffffffffffffffffffffffffffffffffffffffff1673ffffffffffffffffffffffffffffffffffffffff1681526020016007820160149054906101000a900460ff161515151581525050828281518110610d6757610d66612919565b5b60200260200101819052508080610d7d90612977565b915050610a55565b508091505090565b600080600360008581526020019081526020016000208054905011610de7576040517f08c379a0000000000000000000000000000000000000000000000000000000008152600401610dde90612dd1565b60405180910390fd5b6000805b6002600086815260200190815260200160002080549050811015610fa2578373ffffffffffffffffffffffffffffffffffffffff16600260008781526020019081526020016000208281548110610e4557610e44612919565b5b906000526020600020906002020160000160009054906101000a900473ffffffffffffffffffffffffffffffffffffffff1673ffffffffffffffffffffffffffffffffffffffff1603610f8f5760005b6003600087815260200190815260200160002080549050811015610f8d57600360008781526020019081526020016000208181548110610ed857610ed7612919565b5b90600052602060002090602091828204019190069054906101000a900460ff1660ff16600260008881526020019081526020016000208381548110610f2057610f1f612919565b5b90600052602060002090600202016001018281548110610f4357610f42612919565b5b90600052602060002090602091828204019190069054906101000a900460ff1660ff1603610f7a578280610f7690612977565b9350505b8080610f8590612977565b915050610e95565b505b8080610f9a90612977565b915050610deb565b508091505092915050565b6000602052806000526040600020600091509050806000018054610fd09061266a565b80601f0160208091040260200160405190810160405280929190818152602001828054610ffc9061266a565b80156110495780601f1061101e57610100808354040283529160200191611049565b820191906000526020600020905b81548152906001019060200180831161102c57829003601f168201915b50505050509080600101805461105e9061266a565b80601f016020809104026020016040519081016040528092919081815260200182805461108a9061266a565b80156110d75780601f106110ac576101008083540402835291602001916110d7565b820191906000526020600020905b8154815290600101906020018083116110ba57829003601f168201915b5050505050908060020180546110ec9061266a565b80601f01602080910402602001604051908101604052809291908181526020018280546111189061266a565b80156111655780601f1061113a57610100808354040283529160200191611165565b820191906000526020600020905b81548152906001019060200180831161114857829003601f168201915b50505050509080600301805461117a9061266a565b80601f01602080910402602001604051908101604052809291908181526020018280546111a69061266a565b80156111f35780601f106111c8576101008083540402835291602001916111f3565b820191906000526020600020905b8154815290600101906020018083116111d657829003601f168201915b5050505050908060040154908060050154908060060154908060070160009054906101000a900473ffffffffffffffffffffffffffffffffffffffff16908060070160149054906101000a900460ff16905089565b6060600080600a905060008167ffffffffffffffff81111561126d5761126c611abe565b5b6040519080825280602002602001820160405280156112a657816020015b6112936118d8565b81526020019060019003908161128b5790505b50905060005b60045481101561161057426000808381526020019081526020016000206005015411156115fd57600080828152602001908152602001600020604051806101200160405290816000820180546113019061266a565b80601f016020809104026020016040519081016040528092919081815260200182805461132d9061266a565b801561137a5780601f1061134f5761010080835404028352916020019161137a565b820191906000526020600020905b81548152906001019060200180831161135d57829003601f168201915b505050505081526020016001820180546113939061266a565b80601f01602080910402602001604051908101604052809291908181526020018280546113bf9061266a565b801561140c5780601f106113e15761010080835404028352916020019161140c565b820191906000526020600020905b8154815290600101906020018083116113ef57829003601f168201915b505050505081526020016002820180546114259061266a565b80601f01602080910402602001604051908101604052809291908181526020018280546114519061266a565b801561149e5780601f106114735761010080835404028352916020019161149e565b820191906000526020600020905b81548152906001019060200180831161148157829003601f168201915b505050505081526020016003820180546114b79061266a565b80601f01602080910402602001604051908101604052809291908181526020018280546114e39061266a565b80156115305780601f1061150557610100808354040283529160200191611530565b820191906000526020600020905b81548152906001019060200180831161151357829003601f168201915b505050505081526020016004820154815260200160058201548152602001600682015481526020016007820160009054906101000a900473ffffffffffffffffffffffffffffffffffffffff1673ffffffffffffffffffffffffffffffffffffffff1673ffffffffffffffffffffffffffffffffffffffff1681526020016007820160149054906101000a900460ff1615151515815250508285815181106115db576115da612919565b5b602002602001018190525083806115f190612977565b94505082840315611610575b808061160890612977565b9150506112ac565b50818310156116d55760008367ffffffffffffffff81111561163557611634611abe565b5b60405190808252806020026020018201604052801561166e57816020015b61165b6118d8565b8152602001906001900390816116535790505b50905060005b848110156116c85782818151811061168f5761168e612919565b5b60200260200101518282815181106116aa576116a9612919565b5b602002602001018190525080806116c090612977565b915050611674565b50809450505050506116dc565b8093505050505b90565b600160205281600052604060002081815481106116fb57600080fd5b90600052602060002090600502016000915091505080600001805461171f9061266a565b80601f016020809104026020016040519081016040528092919081815260200182805461174b9061266a565b80156117985780601f1061176d57610100808354040283529160200191611798565b820191906000526020600020905b81548152906001019060200180831161177b57829003601f168201915b5050505050905081565b600360205281600052604060002081815481106117be57600080fd5b9060005260206000209060209182820401919006915091509054906101000a900460ff1681565b8260048101928215611820579160200282015b8281111561181f57825182908161180f9190612847565b50916020019190600101906117f8565b5b50905061182d919061193c565b5090565b82805482825590600052602060002090601f016020900481019282156118c75791602002820160005b8382111561189857835183826101000a81548160ff021916908360ff160217905550926020019260010160208160000104928301926001030261185a565b80156118c55782816101000a81549060ff0219169055600101602081600001049283019260010302611898565b505b5090506118d49190611960565b5090565b60405180610120016040528060608152602001606081526020016060815260200160608152602001600081526020016000815260200160008152602001600073ffffffffffffffffffffffffffffffffffffffff1681526020016000151581525090565b5b8082111561195c5760008181611953919061197d565b5060010161193d565b5090565b5b80821115611979576000816000905550600101611961565b5090565b5080546119899061266a565b6000825580601f1061199b57506119ba565b601f0160209004906000526020600020908101906119b99190611960565b5b50565b6000604051905090565b600080fd5b600080fd5b6000819050919050565b6119e4816119d1565b81146119ef57600080fd5b50565b600081359050611a01816119db565b92915050565b60008060408385031215611a1e57611a1d6119c7565b5b6000611a2c858286016119f2565b9250506020611a3d858286016119f2565b9150509250929050565b600073ffffffffffffffffffffffffffffffffffffffff82169050919050565b6000611a7282611a47565b9050919050565b611a8281611a67565b82525050565b6000602082019050611a9d6000830184611a79565b92915050565b600080fd5b600080fd5b6000601f19601f8301169050919050565b7f4e487b7100000000000000000000000000000000000000000000000000000000600052604160045260246000fd5b611af682611aad565b810181811067ffffffffffffffff82111715611b1557611b14611abe565b5b80604052505050565b6000611b286119bd565b9050611b348282611aed565b919050565b600067ffffffffffffffff821115611b5457611b53611abe565b5b611b5d82611aad565b9050602081019050919050565b82818337600083830152505050565b6000611b8c611b8784611b39565b611b1e565b905082815260208101848484011115611ba857611ba7611aa8565b5b611bb3848285611b6a565b509392505050565b600082601f830112611bd057611bcf611aa3565b5b8135611be0848260208601611b79565b91505092915050565b600067ffffffffffffffff821115611c0457611c03611abe565b5b602082029050602081019050919050565b600080fd5b600080fd5b600080fd5b600067ffffffffffffffff821115611c3f57611c3e611abe565b5b602082029050919050565b6000611c5d611c5884611c24565b611b1e565b90508060208402830185811115611c7757611c76611c15565b5b835b81811015611cbe57803567ffffffffffffffff811115611c9c57611c9b611aa3565b5b808601611ca98982611bbb565b85526020850194505050602081019050611c79565b5050509392505050565b600082601f830112611cdd57611cdc611aa3565b5b6004611cea848285611c4a565b91505092915050565b600060408284031215611d0957611d08611c1a565b5b611d136040611b1e565b9050600082013567ffffffffffffffff811115611d3357611d32611c1f565b5b611d3f84828501611bbb565b600083015250602082013567ffffffffffffffff811115611d6357611d62611c1f565b5b611d6f84828501611cc8565b60208301525092915050565b6000611d8e611d8984611be9565b611b1e565b90508083825260208201905060208402830185811115611db157611db0611c15565b5b835b81811015611df857803567ffffffffffffffff811115611dd657611dd5611aa3565b5b808601611de38982611cf3565b85526020850194505050602081019050611db3565b5050509392505050565b600082601f830112611e1757611e16611aa3565b5b8135611e27848260208601611d7b565b91505092915050565b600080600080600080600060e0888a031215611e4f57611e4e6119c7565b5b600088013567ffffffffffffffff811115611e6d57611e6c6119cc565b5b611e798a828b01611bbb565b975050602088013567ffffffffffffffff811115611e9a57611e996119cc565b5b611ea68a828b01611bbb565b965050604088013567ffffffffffffffff811115611ec757611ec66119cc565b5b611ed38a828b01611bbb565b955050606088013567ffffffffffffffff811115611ef457611ef36119cc565b5b611f008a828b01611bbb565b945050608088013567ffffffffffffffff811115611f2157611f206119cc565b5b611f2d8a828b01611e02565b93505060a0611f3e8a828b016119f2565b92505060c0611f4f8a828b016119f2565b91505092959891949750929550565b611f67816119d1565b82525050565b6000602082019050611f826000830184611f5e565b92915050565b600067ffffffffffffffff821115611fa357611fa2611abe565b5b602082029050602081019050919050565b600060ff82169050919050565b611fca81611fb4565b8114611fd557600080fd5b50565b600081359050611fe781611fc1565b92915050565b6000612000611ffb84611f88565b611b1e565b9050808382526020820190506020840283018581111561202357612022611c15565b5b835b8181101561204c57806120388882611fd8565b845260208401935050602081019050612025565b5050509392505050565b600082601f83011261206b5761206a611aa3565b5b813561207b848260208601611fed565b91505092915050565b6000806040838503121561209b5761209a6119c7565b5b60006120a9858286016119f2565b925050602083013567ffffffffffffffff8111156120ca576120c96119cc565b5b6120d685828601612056565b9150509250929050565b600081519050919050565b600082825260208201905092915050565b6000819050602082019050919050565b600081519050919050565b600082825260208201905092915050565b60005b8381101561214657808201518184015260208101905061212b565b60008484015250505050565b600061215d8261210c565b6121678185612117565b9350612177818560208601612128565b61218081611aad565b840191505092915050565b612194816119d1565b82525050565b6121a381611a67565b82525050565b60008115159050919050565b6121be816121a9565b82525050565b60006101208301600083015184820360008601526121e28282612152565b915050602083015184820360208601526121fc8282612152565b915050604083015184820360408601526122168282612152565b915050606083015184820360608601526122308282612152565b9150506080830151612245608086018261218b565b5060a083015161225860a086018261218b565b5060c083015161226b60c086018261218b565b5060e083015161227e60e086018261219a565b506101008301516122936101008601826121b5565b508091505092915050565b60006122aa83836121c4565b905092915050565b6000602082019050919050565b60006122ca826120e0565b6122d481856120eb565b9350836020820285016122e6856120fc565b8060005b858110156123225784840389528151612303858261229e565b945061230e836122b2565b925060208a019950506001810190506122ea565b50829750879550505050505092915050565b6000602082019050818103600083015261234e81846122bf565b905092915050565b61235f81611a67565b811461236a57600080fd5b50565b60008135905061237c81612356565b92915050565b60008060408385031215612399576123986119c7565b5b60006123a7858286016119f2565b92505060206123b88582860161236d565b9150509250929050565b6000602082840312156123d8576123d76119c7565b5b60006123e6848285016119f2565b91505092915050565b600082825260208201905092915050565b600061240b8261210c565b61241581856123ef565b9350612425818560208601612128565b61242e81611aad565b840191505092915050565b612442816121a9565b82525050565b6000610120820190508181036000830152612463818c612400565b90508181036020830152612477818b612400565b9050818103604083015261248b818a612400565b9050818103606083015261249f8189612400565b90506124ae6080830188611f5e565b6124bb60a0830187611f5e565b6124c860c0830186611f5e565b6124d560e0830185611a79565b6124e3610100830184612439565b9a9950505050505050505050565b6000602082019050818103600083015261250b8184612400565b905092915050565b61251c81611fb4565b82525050565b60006020820190506125376000830184612513565b92915050565b7f53746172742064617465206d75737420626520696e2074686520667574757265600082015250565b60006125736020836123ef565b915061257e8261253d565b602082019050919050565b600060208201905081810360008301526125a281612566565b9050919050565b7f5175657374696f6e20636f756e74206d757374206265206265747765656e203560008201527f20616e6420313500000000000000000000000000000000000000000000000000602082015250565b60006126056027836123ef565b9150612610826125a9565b604082019050919050565b60006020820190508181036000830152612634816125f8565b9050919050565b7f4e487b7100000000000000000000000000000000000000000000000000000000600052602260045260246000fd5b6000600282049050600182168061268257607f821691505b6020821081036126955761269461263b565b5b50919050565b60008190508160005260206000209050919050565b60006020601f8301049050919050565b600082821b905092915050565b6000600883026126fd7fffffffffffffffffffffffffffffffffffffffffffffffffffffffffffffffff826126c0565b61270786836126c0565b95508019841693508086168417925050509392505050565b6000819050919050565b600061274461273f61273a846119d1565b61271f565b6119d1565b9050919050565b6000819050919050565b61275e83612729565b61277261276a8261274b565b8484546126cd565b825550505050565b600090565b61278761277a565b612792818484612755565b505050565b5b818110156127b6576127ab60008261277f565b600181019050612798565b5050565b601f8211156127fb576127cc8161269b565b6127d5846126b0565b810160208510156127e4578190505b6127f86127f0856126b0565b830182612797565b50505b505050565b600082821c905092915050565b600061281e60001984600802612800565b1980831691505092915050565b6000612837838361280d565b9150826002028217905092915050565b6128508261210c565b67ffffffffffffffff81111561286957612868611abe565b5b612873825461266a565b61287e8282856127ba565b600060209050601f8311600181146128b1576000841561289f578287015190505b6128a9858261282b565b865550612911565b601f1984166128bf8661269b565b60005b828110156128e7578489015182556001820191506020850194506020810190506128c2565b868310156129045784890151612900601f89168261280d565b8355505b6001600288020188555050505b505050505050565b7f4e487b7100000000000000000000000000000000000000000000000000000000600052603260045260246000fd5b7f4e487b7100000000000000000000000000000000000000000000000000000000600052601160045260246000fd5b6000612982826119d1565b91507fffffffffffffffffffffffffffffffffffffffffffffffffffffffffffffffff82036129b4576129b3612948565b5b600182019050919050565b60006040820190506129d46000830185611f5e565b6129e16020830184611a79565b9392505050565b60006040820190506129fd6000830185611f5e565b612a0a6020830184611f5e565b9392505050565b7f5175697a20686173206e6f742073746172746564207965740000000000000000600082015250565b6000612a476018836123ef565b9150612a5282612a11565b602082019050919050565b60006020820190508181036000830152612a7681612a3a565b9050919050565b6000612a88826119d1565b9150612a93836119d1565b9250828201905080821115612aab57612aaa612948565b5b92915050565b7f5175697a2068617320616c726561647920656e64656400000000000000000000600082015250565b6000612ae76016836123ef565b9150612af282612ab1565b602082019050919050565b60006020820190508181036000830152612b1681612ada565b9050919050565b7f496e76616c6964206e756d626572206f6620616e737765727300000000000000600082015250565b6000612b536019836123ef565b9150612b5e82612b1d565b602082019050919050565b60006020820190508181036000830152612b8281612b46565b9050919050565b7f4f6e6c79207468652063726561746f722063616e20696e7365727420636f727260008201527f65637420616e7377657273000000000000000000000000000000000000000000602082015250565b6000612be5602b836123ef565b9150612bf082612b89565b604082019050919050565b60006020820190508181036000830152612c1481612bd8565b9050919050565b7f5175697a206973207374696c6c206f6e676f696e670000000000000000000000600082015250565b6000612c516015836123ef565b9150612c5c82612c1b565b602082019050919050565b60006020820190508181036000830152612c8081612c44565b9050919050565b7f436f727265637420616e737765727320616c726561647920696e736572746564600082015250565b6000612cbd6020836123ef565b9150612cc882612c87565b602082019050919050565b60006020820190508181036000830152612cec81612cb0565b9050919050565b7f496e76616c6964206e756d626572206f6620636f727265637420616e7377657260008201527f7300000000000000000000000000000000000000000000000000000000000000602082015250565b6000612d4f6021836123ef565b9150612d5a82612cf3565b604082019050919050565b60006020820190508181036000830152612d7e81612d42565b9050919050565b7f436f727265637420616e7377657273206e6f7420696e73657274656420796574600082015250565b6000612dbb6020836123ef565b9150612dc682612d85565b602082019050919050565b60006020820190508181036000830152612dea81612dae565b905091905056fea2646970667358221220dcadf91bc7161184ce048bf267e0af2ce69c89bf51ab705eead292d07b29d36c64736f6c63430008120033",
			"opcodes": "PUSH1 0x80 PUSH1 0x40 MSTORE CALLVALUE DUP1 ISZERO PUSH2 0x10 JUMPI PUSH1 0x0 DUP1 REVERT JUMPDEST POP PUSH2 0x2E27 DUP1 PUSH2 0x20 PUSH1 0x0 CODECOPY PUSH1 0x0 RETURN INVALID PUSH1 0x80 PUSH1 0x40 MSTORE CALLVALUE DUP1 ISZERO PUSH2 0x10 JUMPI PUSH1 0x0 DUP1 REVERT JUMPDEST POP PUSH1 0x4 CALLDATASIZE LT PUSH2 0xA9 JUMPI PUSH1 0x0 CALLDATALOAD PUSH1 0xE0 SHR DUP1 PUSH4 0x6A4AF0FA GT PUSH2 0x71 JUMPI DUP1 PUSH4 0x6A4AF0FA EQ PUSH2 0x150 JUMPI DUP1 PUSH4 0x80F2FF25 EQ PUSH2 0x16E JUMPI DUP1 PUSH4 0x88409AFA EQ PUSH2 0x19E JUMPI DUP1 PUSH4 0xA5759814 EQ PUSH2 0x1D6 JUMPI DUP1 PUSH4 0xA5C499DD EQ PUSH2 0x1F4 JUMPI DUP1 PUSH4 0xFDCAF762 EQ PUSH2 0x224 JUMPI PUSH2 0xA9 JUMP JUMPDEST DUP1 PUSH4 0x1246D1C3 EQ PUSH2 0xAE JUMPI DUP1 PUSH4 0x145E856A EQ PUSH2 0xDE JUMPI DUP1 PUSH4 0x2E8497CF EQ PUSH2 0xFA JUMPI DUP1 PUSH4 0x30B81400 EQ PUSH2 0x118 JUMPI DUP1 PUSH4 0x461C3C9B EQ PUSH2 0x134 JUMPI JUMPDEST PUSH1 0x0 DUP1 REVERT JUMPDEST PUSH2 0xC8 PUSH1 0x4 DUP1 CALLDATASIZE SUB DUP2 ADD SWAP1 PUSH2 0xC3 SWAP2 SWAP1 PUSH2 0x1A07 JUMP JUMPDEST PUSH2 0x254 JUMP JUMPDEST PUSH1 0x40 MLOAD PUSH2 0xD5 SWAP2 SWAP1 PUSH2 0x1A88 JUMP JUMPDEST PUSH1 0x40 MLOAD DUP1 SWAP2 SUB SWAP1 RETURN JUMPDEST PUSH2 0xF8 PUSH1 0x4 DUP1 CALLDATASIZE SUB DUP2 ADD SWAP1 PUSH2 0xF3 SWAP2 SWAP1 PUSH2 0x1E30 JUMP JUMPDEST PUSH2 0x2AF JUMP JUMPDEST STOP JUMPDEST PUSH2 0x102 PUSH2 0x5D4 JUMP JUMPDEST PUSH1 0x40 MLOAD PUSH2 0x10F SWAP2 SWAP1 PUSH2 0x1F6D JUMP JUMPDEST PUSH1 0x40 MLOAD DUP1 SWAP2 SUB SWAP1 RETURN JUMPDEST PUSH2 0x132 PUSH1 0x4 DUP1 CALLDATASIZE SUB DUP2 ADD SWAP1 PUSH2 0x12D SWAP2 SWAP1 PUSH2 0x2084 JUMP JUMPDEST PUSH2 0x5DA JUMP JUMPDEST STOP JUMPDEST PUSH2 0x14E PUSH1 0x4 DUP1 CALLDATASIZE SUB DUP2 ADD SWAP1 PUSH2 0x149 SWAP2 SWAP1 PUSH2 0x2084 JUMP JUMPDEST PUSH2 0x7DF JUMP JUMPDEST STOP JUMPDEST PUSH2 0x158 PUSH2 0x9F6 JUMP JUMPDEST PUSH1 0x40 MLOAD PUSH2 0x165 SWAP2 SWAP1 PUSH2 0x2334 JUMP JUMPDEST PUSH1 0x40 MLOAD DUP1 SWAP2 SUB SWAP1 RETURN JUMPDEST PUSH2 0x188 PUSH1 0x4 DUP1 CALLDATASIZE SUB DUP2 ADD SWAP1 PUSH2 0x183 SWAP2 SWAP1 PUSH2 0x2382 JUMP JUMPDEST PUSH2 0xD8D JUMP JUMPDEST PUSH1 0x40 MLOAD PUSH2 0x195 SWAP2 SWAP1 PUSH2 0x1F6D JUMP JUMPDEST PUSH1 0x40 MLOAD DUP1 SWAP2 SUB SWAP1 RETURN JUMPDEST PUSH2 0x1B8 PUSH1 0x4 DUP1 CALLDATASIZE SUB DUP2 ADD SWAP1 PUSH2 0x1B3 SWAP2 SWAP1 PUSH2 0x23C2 JUMP JUMPDEST PUSH2 0xFAD JUMP JUMPDEST PUSH1 0x40 MLOAD PUSH2 0x1CD SWAP10 SWAP9 SWAP8 SWAP7 SWAP6 SWAP5 SWAP4 SWAP3 SWAP2 SWAP1 PUSH2 0x2448 JUMP JUMPDEST PUSH1 0x40 MLOAD DUP1 SWAP2 SUB SWAP1 RETURN JUMPDEST PUSH2 0x1DE PUSH2 0x1248 JUMP JUMPDEST PUSH1 0x40 MLOAD PUSH2 0x1EB SWAP2 SWAP1 PUSH2 0x2334 JUMP JUMPDEST PUSH1 0x40 MLOAD DUP1 SWAP2 SUB SWAP1 RETURN JUMPDEST PUSH2 0x20E PUSH1 0x4 DUP1 CALLDATASIZE SUB DUP2 ADD SWAP1 PUSH2 0x209 SWAP2 SWAP1 PUSH2 0x1A07 JUMP JUMPDEST PUSH2 0x16DF JUMP JUMPDEST PUSH1 0x40 MLOAD PUSH2 0x21B SWAP2 SWAP1 PUSH2 0x24F1 JUMP JUMPDEST PUSH1 0x40 MLOAD DUP1 SWAP2 SUB SWAP1 RETURN JUMPDEST PUSH2 0x23E PUSH1 0x4 DUP1 CALLDATASIZE SUB DUP2 ADD SWAP1 PUSH2 0x239 SWAP2 SWAP1 PUSH2 0x1A07 JUMP JUMPDEST PUSH2 0x17A2 JUMP JUMPDEST PUSH1 0x40 MLOAD PUSH2 0x24B SWAP2 SWAP1 PUSH2 0x2522 JUMP JUMPDEST PUSH1 0x40 MLOAD DUP1 SWAP2 SUB SWAP1 RETURN JUMPDEST PUSH1 0x2 PUSH1 0x20 MSTORE DUP2 PUSH1 0x0 MSTORE PUSH1 0x40 PUSH1 0x0 KECCAK256 DUP2 DUP2 SLOAD DUP2 LT PUSH2 0x270 JUMPI PUSH1 0x0 DUP1 REVERT JUMPDEST SWAP1 PUSH1 0x0 MSTORE PUSH1 0x20 PUSH1 0x0 KECCAK256 SWAP1 PUSH1 0x2 MUL ADD PUSH1 0x0 SWAP2 POP SWAP2 POP POP DUP1 PUSH1 0x0 ADD PUSH1 0x0 SWAP1 SLOAD SWAP1 PUSH2 0x100 EXP SWAP1 DIV PUSH20 0xFFFFFFFFFFFFFFFFFFFFFFFFFFFFFFFFFFFFFFFF AND SWAP1 POP DUP2 JUMP JUMPDEST TIMESTAMP DUP3 GT PUSH2 0x2F1 JUMPI PUSH1 0x40 MLOAD PUSH32 0x8C379A000000000000000000000000000000000000000000000000000000000 DUP2 MSTORE PUSH1 0x4 ADD PUSH2 0x2E8 SWAP1 PUSH2 0x2589 JUMP JUMPDEST PUSH1 0x40 MLOAD DUP1 SWAP2 SUB SWAP1 REVERT JUMPDEST PUSH1 0x5 DUP4 MLOAD LT ISZERO DUP1 ISZERO PUSH2 0x305 JUMPI POP PUSH1 0xF DUP4 MLOAD GT ISZERO JUMPDEST PUSH2 0x344 JUMPI PUSH1 0x40 MLOAD PUSH32 0x8C379A000000000000000000000000000000000000000000000000000000000 DUP2 MSTORE PUSH1 0x4 ADD PUSH2 0x33B SWAP1 PUSH2 0x261B JUMP JUMPDEST PUSH1 0x40 MLOAD DUP1 SWAP2 SUB SWAP1 REVERT JUMPDEST PUSH1 0x40 MLOAD DUP1 PUSH2 0x120 ADD PUSH1 0x40 MSTORE DUP1 DUP9 DUP2 MSTORE PUSH1 0x20 ADD DUP8 DUP2 MSTORE PUSH1 0x20 ADD DUP7 DUP2 MSTORE PUSH1 0x20 ADD DUP6 DUP2 MSTORE PUSH1 0x20 ADD DUP5 MLOAD DUP2 MSTORE PUSH1 0x20 ADD DUP4 DUP2 MSTORE PUSH1 0x20 ADD DUP3 DUP2 MSTORE PUSH1 0x20 ADD CALLER PUSH20 0xFFFFFFFFFFFFFFFFFFFFFFFFFFFFFFFFFFFFFFFF AND DUP2 MSTORE PUSH1 0x20 ADD PUSH1 0x0 ISZERO ISZERO DUP2 MSTORE POP PUSH1 0x0 DUP1 PUSH1 0x4 SLOAD DUP2 MSTORE PUSH1 0x20 ADD SWAP1 DUP2 MSTORE PUSH1 0x20 ADD PUSH1 0x0 KECCAK256 PUSH1 0x0 DUP3 ADD MLOAD DUP2 PUSH1 0x0 ADD SWAP1 DUP2 PUSH2 0x3C7 SWAP2 SWAP1 PUSH2 0x2847 JUMP JUMPDEST POP PUSH1 0x20 DUP3 ADD MLOAD DUP2 PUSH1 0x1 ADD SWAP1 DUP2 PUSH2 0x3DD SWAP2 SWAP1 PUSH2 0x2847 JUMP JUMPDEST POP PUSH1 0x40 DUP3 ADD MLOAD DUP2 PUSH1 0x2 ADD SWAP1 DUP2 PUSH2 0x3F3 SWAP2 SWAP1 PUSH2 0x2847 JUMP JUMPDEST POP PUSH1 0x60 DUP3 ADD MLOAD DUP2 PUSH1 0x3 ADD SWAP1 DUP2 PUSH2 0x409 SWAP2 SWAP1 PUSH2 0x2847 JUMP JUMPDEST POP PUSH1 0x80 DUP3 ADD MLOAD DUP2 PUSH1 0x4 ADD SSTORE PUSH1 0xA0 DUP3 ADD MLOAD DUP2 PUSH1 0x5 ADD SSTORE PUSH1 0xC0 DUP3 ADD MLOAD DUP2 PUSH1 0x6 ADD SSTORE PUSH1 0xE0 DUP3 ADD MLOAD DUP2 PUSH1 0x7 ADD PUSH1 0x0 PUSH2 0x100 EXP DUP2 SLOAD DUP2 PUSH20 0xFFFFFFFFFFFFFFFFFFFFFFFFFFFFFFFFFFFFFFFF MUL NOT AND SWAP1 DUP4 PUSH20 0xFFFFFFFFFFFFFFFFFFFFFFFFFFFFFFFFFFFFFFFF AND MUL OR SWAP1 SSTORE POP PUSH2 0x100 DUP3 ADD MLOAD DUP2 PUSH1 0x7 ADD PUSH1 0x14 PUSH2 0x100 EXP DUP2 SLOAD DUP2 PUSH1 0xFF MUL NOT AND SWAP1 DUP4 ISZERO ISZERO MUL OR SWAP1 SSTORE POP SWAP1 POP POP PUSH1 0x0 JUMPDEST DUP4 MLOAD DUP2 LT ISZERO PUSH2 0x53B JUMPI PUSH1 0x1 PUSH1 0x0 PUSH1 0x4 SLOAD DUP2 MSTORE PUSH1 0x20 ADD SWAP1 DUP2 MSTORE PUSH1 0x20 ADD PUSH1 0x0 KECCAK256 DUP5 DUP3 DUP2 MLOAD DUP2 LT PUSH2 0x4C7 JUMPI PUSH2 0x4C6 PUSH2 0x2919 JUMP JUMPDEST JUMPDEST PUSH1 0x20 MUL PUSH1 0x20 ADD ADD MLOAD SWAP1 DUP1 PUSH1 0x1 DUP2 SLOAD ADD DUP1 DUP3 SSTORE DUP1 SWAP2 POP POP PUSH1 0x1 SWAP1 SUB SWAP1 PUSH1 0x0 MSTORE PUSH1 0x20 PUSH1 0x0 KECCAK256 SWAP1 PUSH1 0x5 MUL ADD PUSH1 0x0 SWAP1 SWAP2 SWAP1 SWAP2 SWAP1 SWAP2 POP PUSH1 0x0 DUP3 ADD MLOAD DUP2 PUSH1 0x0 ADD SWAP1 DUP2 PUSH2 0x50D SWAP2 SWAP1 PUSH2 0x2847 JUMP JUMPDEST POP PUSH1 0x20 DUP3 ADD MLOAD DUP2 PUSH1 0x1 ADD SWAP1 PUSH1 0x4 PUSH2 0x525 SWAP3 SWAP2 SWAP1 PUSH2 0x17E5 JUMP JUMPDEST POP POP POP DUP1 DUP1 PUSH2 0x533 SWAP1 PUSH2 0x2977 JUMP JUMPDEST SWAP2 POP POP PUSH2 0x496 JUMP JUMPDEST POP PUSH32 0xCD72A4DD76A0E2BAFED5C285D3CDFAFC81D08E179F8518FB116A65442DC2602C PUSH1 0x4 SLOAD CALLER PUSH1 0x40 MLOAD PUSH2 0x56F SWAP3 SWAP2 SWAP1 PUSH2 0x29BF JUMP JUMPDEST PUSH1 0x40 MLOAD DUP1 SWAP2 SUB SWAP1 LOG1 PUSH32 0x4C348724180CBE7A15593FB6ADA180172E6EC6B66ED6D06DE07F2C00BCE39FC4 PUSH1 0x4 SLOAD DUP5 MLOAD PUSH1 0x40 MLOAD PUSH2 0x5AB SWAP3 SWAP2 SWAP1 PUSH2 0x29E8 JUMP JUMPDEST PUSH1 0x40 MLOAD DUP1 SWAP2 SUB SWAP1 LOG1 PUSH1 0x4 PUSH1 0x0 DUP2 SLOAD DUP1 SWAP3 SWAP2 SWAP1 PUSH2 0x5C6 SWAP1 PUSH2 0x2977 JUMP JUMPDEST SWAP2 SWAP1 POP SSTORE POP POP POP POP POP POP POP POP JUMP JUMPDEST PUSH1 0x4 SLOAD DUP2 JUMP JUMPDEST PUSH1 0x0 DUP1 PUSH1 0x0 DUP5 DUP2 MSTORE PUSH1 0x20 ADD SWAP1 DUP2 MSTORE PUSH1 0x20 ADD PUSH1 0x0 KECCAK256 SWAP1 POP DUP1 PUSH1 0x5 ADD SLOAD TIMESTAMP LT ISZERO PUSH2 0x637 JUMPI PUSH1 0x40 MLOAD PUSH32 0x8C379A000000000000000000000000000000000000000000000000000000000 DUP2 MSTORE PUSH1 0x4 ADD PUSH2 0x62E SWAP1 PUSH2 0x2A5D JUMP JUMPDEST PUSH1 0x40 MLOAD DUP1 SWAP2 SUB SWAP1 REVERT JUMPDEST DUP1 PUSH1 0x6 ADD SLOAD DUP2 PUSH1 0x5 ADD SLOAD PUSH2 0x64B SWAP2 SWAP1 PUSH2 0x2A7D JUMP JUMPDEST TIMESTAMP GT ISZERO PUSH2 0x68D JUMPI PUSH1 0x40 MLOAD PUSH32 0x8C379A000000000000000000000000000000000000000000000000000000000 DUP2 MSTORE PUSH1 0x4 ADD PUSH2 0x684 SWAP1 PUSH2 0x2AFD JUMP JUMPDEST PUSH1 0x40 MLOAD DUP1 SWAP2 SUB SWAP1 REVERT JUMPDEST DUP1 PUSH1 0x4 ADD SLOAD DUP3 MLOAD EQ PUSH2 0x6D4 JUMPI PUSH1 0x40 MLOAD PUSH32 0x8C379A000000000000000000000000000000000000000000000000000000000 DUP2 MSTORE PUSH1 0x4 ADD PUSH2 0x6CB SWAP1 PUSH2 0x2B69 JUMP JUMPDEST PUSH1 0x40 MLOAD DUP1 SWAP2 SUB SWAP1 REVERT JUMPDEST PUSH1 0x2 PUSH1 0x0 DUP5 DUP2 MSTORE PUSH1 0x20 ADD SWAP1 DUP2 MSTORE PUSH1 0x20 ADD PUSH1 0x0 KECCAK256 PUSH1 0x40 MLOAD DUP1 PUSH1 0x40 ADD PUSH1 0x40 MSTORE DUP1 CALLER PUSH20 0xFFFFFFFFFFFFFFFFFFFFFFFFFFFFFFFFFFFFFFFF AND DUP2 MSTORE PUSH1 0x20 ADD DUP5 DUP2 MSTORE POP SWAP1 DUP1 PUSH1 0x1 DUP2 SLOAD ADD DUP1 DUP3 SSTORE DUP1 SWAP2 POP POP PUSH1 0x1 SWAP1 SUB SWAP1 PUSH1 0x0 MSTORE PUSH1 0x20 PUSH1 0x0 KECCAK256 SWAP1 PUSH1 0x2 MUL ADD PUSH1 0x0 SWAP1 SWAP2 SWAP1 SWAP2 SWAP1 SWAP2 POP PUSH1 0x0 DUP3 ADD MLOAD DUP2 PUSH1 0x0 ADD PUSH1 0x0 PUSH2 0x100 EXP DUP2 SLOAD DUP2 PUSH20 0xFFFFFFFFFFFFFFFFFFFFFFFFFFFFFFFFFFFFFFFF MUL NOT AND SWAP1 DUP4 PUSH20 0xFFFFFFFFFFFFFFFFFFFFFFFFFFFFFFFFFFFFFFFF AND MUL OR SWAP1 SSTORE POP PUSH1 0x20 DUP3 ADD MLOAD DUP2 PUSH1 0x1 ADD SWAP1 DUP1 MLOAD SWAP1 PUSH1 0x20 ADD SWAP1 PUSH2 0x79E SWAP3 SWAP2 SWAP1 PUSH2 0x1831 JUMP JUMPDEST POP POP POP PUSH32 0x1288E499C046649BD00968F05AA0CCDB5C7F7CD5CFCEE2E9EB5E59400F15EEE3 DUP4 CALLER PUSH1 0x40 MLOAD PUSH2 0x7D2 SWAP3 SWAP2 SWAP1 PUSH2 0x29BF JUMP JUMPDEST PUSH1 0x40 MLOAD DUP1 SWAP2 SUB SWAP1 LOG1 POP POP POP JUMP JUMPDEST PUSH1 0x0 DUP1 PUSH1 0x0 DUP5 DUP2 MSTORE PUSH1 0x20 ADD SWAP1 DUP2 MSTORE PUSH1 0x20 ADD PUSH1 0x0 KECCAK256 SWAP1 POP DUP1 PUSH1 0x7 ADD PUSH1 0x0 SWAP1 SLOAD SWAP1 PUSH2 0x100 EXP SWAP1 DIV PUSH20 0xFFFFFFFFFFFFFFFFFFFFFFFFFFFFFFFFFFFFFFFF AND PUSH20 0xFFFFFFFFFFFFFFFFFFFFFFFFFFFFFFFFFFFFFFFF AND CALLER PUSH20 0xFFFFFFFFFFFFFFFFFFFFFFFFFFFFFFFFFFFFFFFF AND EQ PUSH2 0x887 JUMPI PUSH1 0x40 MLOAD PUSH32 0x8C379A000000000000000000000000000000000000000000000000000000000 DUP2 MSTORE PUSH1 0x4 ADD PUSH2 0x87E SWAP1 PUSH2 0x2BFB JUMP JUMPDEST PUSH1 0x40 MLOAD DUP1 SWAP2 SUB SWAP1 REVERT JUMPDEST DUP1 PUSH1 0x6 ADD SLOAD DUP2 PUSH1 0x5 ADD SLOAD PUSH2 0x89B SWAP2 SWAP1 PUSH2 0x2A7D JUMP JUMPDEST TIMESTAMP GT PUSH2 0x8DC JUMPI PUSH1 0x40 MLOAD PUSH32 0x8C379A000000000000000000000000000000000000000000000000000000000 DUP2 MSTORE PUSH1 0x4 ADD PUSH2 0x8D3 SWAP1 PUSH2 0x2C67 JUMP JUMPDEST PUSH1 0x40 MLOAD DUP1 SWAP2 SUB SWAP1 REVERT JUMPDEST DUP1 PUSH1 0x7 ADD PUSH1 0x14 SWAP1 SLOAD SWAP1 PUSH2 0x100 EXP SWAP1 DIV PUSH1 0xFF AND ISZERO PUSH2 0x92E JUMPI PUSH1 0x40 MLOAD PUSH32 0x8C379A000000000000000000000000000000000000000000000000000000000 DUP2 MSTORE PUSH1 0x4 ADD PUSH2 0x925 SWAP1 PUSH2 0x2CD3 JUMP JUMPDEST PUSH1 0x40 MLOAD DUP1 SWAP2 SUB SWAP1 REVERT JUMPDEST DUP1 PUSH1 0x4 ADD SLOAD DUP3 MLOAD EQ PUSH2 0x975 JUMPI PUSH1 0x40 MLOAD PUSH32 0x8C379A000000000000000000000000000000000000000000000000000000000 DUP2 MSTORE PUSH1 0x4 ADD PUSH2 0x96C SWAP1 PUSH2 0x2D65 JUMP JUMPDEST PUSH1 0x40 MLOAD DUP1 SWAP2 SUB SWAP1 REVERT JUMPDEST DUP2 PUSH1 0x3 PUSH1 0x0 DUP6 DUP2 MSTORE PUSH1 0x20 ADD SWAP1 DUP2 MSTORE PUSH1 0x20 ADD PUSH1 0x0 KECCAK256 SWAP1 DUP1 MLOAD SWAP1 PUSH1 0x20 ADD SWAP1 PUSH2 0x99C SWAP3 SWAP2 SWAP1 PUSH2 0x1831 JUMP JUMPDEST POP PUSH1 0x1 DUP2 PUSH1 0x7 ADD PUSH1 0x14 PUSH2 0x100 EXP DUP2 SLOAD DUP2 PUSH1 0xFF MUL NOT AND SWAP1 DUP4 ISZERO ISZERO MUL OR SWAP1 SSTORE POP PUSH32 0xB452B9892FADC2BD3BE2C020ABA6DFC078A09A8AEF521F15250EBCAC55FD3957 DUP4 PUSH1 0x40 MLOAD PUSH2 0x9E9 SWAP2 SWAP1 PUSH2 0x1F6D JUMP JUMPDEST PUSH1 0x40 MLOAD DUP1 SWAP2 SUB SWAP1 LOG1 POP POP POP JUMP JUMPDEST PUSH1 0x60 PUSH1 0x0 PUSH1 0x4 SLOAD PUSH8 0xFFFFFFFFFFFFFFFF DUP2 GT ISZERO PUSH2 0xA16 JUMPI PUSH2 0xA15 PUSH2 0x1ABE JUMP JUMPDEST JUMPDEST PUSH1 0x40 MLOAD SWAP1 DUP1 DUP3 MSTORE DUP1 PUSH1 0x20 MUL PUSH1 0x20 ADD DUP3 ADD PUSH1 0x40 MSTORE DUP1 ISZERO PUSH2 0xA4F JUMPI DUP2 PUSH1 0x20 ADD JUMPDEST PUSH2 0xA3C PUSH2 0x18D8 JUMP JUMPDEST DUP2 MSTORE PUSH1 0x20 ADD SWAP1 PUSH1 0x1 SWAP1 SUB SWAP1 DUP2 PUSH2 0xA34 JUMPI SWAP1 POP JUMPDEST POP SWAP1 POP PUSH1 0x0 JUMPDEST PUSH1 0x4 SLOAD DUP2 LT ISZERO PUSH2 0xD85 JUMPI PUSH1 0x0 DUP1 DUP3 DUP2 MSTORE PUSH1 0x20 ADD SWAP1 DUP2 MSTORE PUSH1 0x20 ADD PUSH1 0x0 KECCAK256 PUSH1 0x40 MLOAD DUP1 PUSH2 0x120 ADD PUSH1 0x40 MSTORE SWAP1 DUP2 PUSH1 0x0 DUP3 ADD DUP1 SLOAD PUSH2 0xA8D SWAP1 PUSH2 0x266A JUMP JUMPDEST DUP1 PUSH1 0x1F ADD PUSH1 0x20 DUP1 SWAP2 DIV MUL PUSH1 0x20 ADD PUSH1 0x40 MLOAD SWAP1 DUP2 ADD PUSH1 0x40 MSTORE DUP1 SWAP3 SWAP2 SWAP1 DUP2 DUP2 MSTORE PUSH1 0x20 ADD DUP3 DUP1 SLOAD PUSH2 0xAB9 SWAP1 PUSH2 0x266A JUMP JUMPDEST DUP1 ISZERO PUSH2 0xB06 JUMPI DUP1 PUSH1 0x1F LT PUSH2 0xADB JUMPI PUSH2 0x100 DUP1 DUP4 SLOAD DIV MUL DUP4 MSTORE SWAP2 PUSH1 0x20 ADD SWAP2 PUSH2 0xB06 JUMP JUMPDEST DUP3 ADD SWAP2 SWAP1 PUSH1 0x0 MSTORE PUSH1 0x20 PUSH1 0x0 KECCAK256 SWAP1 JUMPDEST DUP2 SLOAD DUP2 MSTORE SWAP1 PUSH1 0x1 ADD SWAP1 PUSH1 0x20 ADD DUP1 DUP4 GT PUSH2 0xAE9 JUMPI DUP3 SWAP1 SUB PUSH1 0x1F AND DUP3 ADD SWAP2 JUMPDEST POP POP POP POP POP DUP2 MSTORE PUSH1 0x20 ADD PUSH1 0x1 DUP3 ADD DUP1 SLOAD PUSH2 0xB1F SWAP1 PUSH2 0x266A JUMP JUMPDEST DUP1 PUSH1 0x1F ADD PUSH1 0x20 DUP1 SWAP2 DIV MUL PUSH1 0x20 ADD PUSH1 0x40 MLOAD SWAP1 DUP2 ADD PUSH1 0x40 MSTORE DUP1 SWAP3 SWAP2 SWAP1 DUP2 DUP2 MSTORE PUSH1 0x20 ADD DUP3 DUP1 SLOAD PUSH2 0xB4B SWAP1 PUSH2 0x266A JUMP JUMPDEST DUP1 ISZERO PUSH2 0xB98 JUMPI DUP1 PUSH1 0x1F LT PUSH2 0xB6D JUMPI PUSH2 0x100 DUP1 DUP4 SLOAD DIV MUL DUP4 MSTORE SWAP2 PUSH1 0x20 ADD SWAP2 PUSH2 0xB98 JUMP JUMPDEST DUP3 ADD SWAP2 SWAP1 PUSH1 0x0 MSTORE PUSH1 0x20 PUSH1 0x0 KECCAK256 SWAP1 JUMPDEST DUP2 SLOAD DUP2 MSTORE SWAP1 PUSH1 0x1 ADD SWAP1 PUSH1 0x20 ADD DUP1 DUP4 GT PUSH2 0xB7B JUMPI DUP3 SWAP1 SUB PUSH1 0x1F AND DUP3 ADD SWAP2 JUMPDEST POP POP POP POP POP DUP2 MSTORE PUSH1 0x20 ADD PUSH1 0x2 DUP3 ADD DUP1 SLOAD PUSH2 0xBB1 SWAP1 PUSH2 0x266A JUMP JUMPDEST DUP1 PUSH1 0x1F ADD PUSH1 0x20 DUP1 SWAP2 DIV MUL PUSH1 0x20 ADD PUSH1 0x40 MLOAD SWAP1 DUP2 ADD PUSH1 0x40 MSTORE DUP1 SWAP3 SWAP2 SWAP1 DUP2 DUP2 MSTORE PUSH1 0x20 ADD DUP3 DUP1 SLOAD PUSH2 0xBDD SWAP1 PUSH2 0x266A JUMP JUMPDEST DUP1 ISZERO PUSH2 0xC2A JUMPI DUP1 PUSH1 0x1F LT PUSH2 0xBFF JUMPI PUSH2 0x100 DUP1 DUP4 SLOAD DIV MUL DUP4 MSTORE SWAP2 PUSH1 0x20 ADD SWAP2 PUSH2 0xC2A JUMP JUMPDEST DUP3 ADD SWAP2 SWAP1 PUSH1 0x0 MSTORE PUSH1 0x20 PUSH1 0x0 KECCAK256 SWAP1 JUMPDEST DUP2 SLOAD DUP2 MSTORE SWAP1 PUSH1 0x1 ADD SWAP1 PUSH1 0x20 ADD DUP1 DUP4 GT PUSH2 0xC0D JUMPI DUP3 SWAP1 SUB PUSH1 0x1F AND DUP3 ADD SWAP2 JUMPDEST POP POP POP POP POP DUP2 MSTORE PUSH1 0x20 ADD PUSH1 0x3 DUP3 ADD DUP1 SLOAD PUSH2 0xC43 SWAP1 PUSH2 0x266A JUMP JUMPDEST DUP1 PUSH1 0x1F ADD PUSH1 0x20 DUP1 SWAP2 DIV MUL PUSH1 0x20 ADD PUSH1 0x40 MLOAD SWAP1 DUP2 ADD PUSH1 0x40 MSTORE DUP1 SWAP3 SWAP2 SWAP1 DUP2 DUP2 MSTORE PUSH1 0x20 ADD DUP3 DUP1 SLOAD PUSH2 0xC6F SWAP1 PUSH2 0x266A JUMP JUMPDEST DUP1 ISZERO PUSH2 0xCBC JUMPI DUP1 PUSH1 0x1F LT PUSH2 0xC91 JUMPI PUSH2 0x100 DUP1 DUP4 SLOAD DIV MUL DUP4 MSTORE SWAP2 PUSH1 0x20 ADD SWAP2 PUSH2 0xCBC JUMP JUMPDEST DUP3 ADD SWAP2 SWAP1 PUSH1 0x0 MSTORE PUSH1 0x20 PUSH1 0x0 KECCAK256 SWAP1 JUMPDEST DUP2 SLOAD DUP2 MSTORE SWAP1 PUSH1 0x1 ADD SWAP1 PUSH1 0x20 ADD DUP1 DUP4 GT PUSH2 0xC9F JUMPI DUP3 SWAP1 SUB PUSH1 0x1F AND DUP3 ADD SWAP2 JUMPDEST POP POP POP POP POP DUP2 MSTORE PUSH1 0x20 ADD PUSH1 0x4 DUP3 ADD SLOAD DUP2 MSTORE PUSH1 0x20 ADD PUSH1 0x5 DUP3 ADD SLOAD DUP2 MSTORE PUSH1 0x20 ADD PUSH1 0x6 DUP3 ADD SLOAD DUP2 MSTORE PUSH1 0x20 ADD PUSH1 0x7 DUP3 ADD PUSH1 0x0 SWAP1 SLOAD SWAP1 PUSH2 0x100 EXP SWAP1 DIV PUSH20 0xFFFFFFFFFFFFFFFFFFFFFFFFFFFFFFFFFFFFFFFF AND PUSH20 0xFFFFFFFFFFFFFFFFFFFFFFFFFFFFFFFFFFFFFFFF AND PUSH20 0xFFFFFFFFFFFFFFFFFFFFFFFFFFFFFFFFFFFFFFFF AND DUP2 MSTORE PUSH1 0x20 ADD PUSH1 0x7 DUP3 ADD PUSH1 0x14 SWAP1 SLOAD SWAP1 PUSH2 0x100 EXP SWAP1 DIV PUSH1 0xFF AND ISZERO ISZERO ISZERO ISZERO DUP2 MSTORE POP POP DUP3 DUP3 DUP2 MLOAD DUP2 LT PUSH2 0xD67 JUMPI PUSH2 0xD66 PUSH2 0x2919 JUMP JUMPDEST JUMPDEST PUSH1 0x20 MUL PUSH1 0x20 ADD ADD DUP2 SWAP1 MSTORE POP DUP1 DUP1 PUSH2 0xD7D SWAP1 PUSH2 0x2977 JUMP JUMPDEST SWAP2 POP POP PUSH2 0xA55 JUMP JUMPDEST POP DUP1 SWAP2 POP POP SWAP1 JUMP JUMPDEST PUSH1 0x0 DUP1 PUSH1 0x3 PUSH1 0x0 DUP6 DUP2 MSTORE PUSH1 0x20 ADD SWAP1 DUP2 MSTORE PUSH1 0x20 ADD PUSH1 0x0 KECCAK256 DUP1 SLOAD SWAP1 POP GT PUSH2 0xDE7 JUMPI PUSH1 0x40 MLOAD PUSH32 0x8C379A000000000000000000000000000000000000000000000000000000000 DUP2 MSTORE PUSH1 0x4 ADD PUSH2 0xDDE SWAP1 PUSH2 0x2DD1 JUMP JUMPDEST PUSH1 0x40 MLOAD DUP1 SWAP2 SUB SWAP1 REVERT JUMPDEST PUSH1 0x0 DUP1 JUMPDEST PUSH1 0x2 PUSH1 0x0 DUP7 DUP2 MSTORE PUSH1 0x20 ADD SWAP1 DUP2 MSTORE PUSH1 0x20 ADD PUSH1 0x0 KECCAK256 DUP1 SLOAD SWAP1 POP DUP2 LT ISZERO PUSH2 0xFA2 JUMPI DUP4 PUSH20 0xFFFFFFFFFFFFFFFFFFFFFFFFFFFFFFFFFFFFFFFF AND PUSH1 0x2 PUSH1 0x0 DUP8 DUP2 MSTORE PUSH1 0x20 ADD SWAP1 DUP2 MSTORE PUSH1 0x20 ADD PUSH1 0x0 KECCAK256 DUP3 DUP2 SLOAD DUP2 LT PUSH2 0xE45 JUMPI PUSH2 0xE44 PUSH2 0x2919 JUMP JUMPDEST JUMPDEST SWAP1 PUSH1 0x0 MSTORE PUSH1 0x20 PUSH1 0x0 KECCAK256 SWAP1 PUSH1 0x2 MUL ADD PUSH1 0x0 ADD PUSH1 0x0 SWAP1 SLOAD SWAP1 PUSH2 0x100 EXP SWAP1 DIV PUSH20 0xFFFFFFFFFFFFFFFFFFFFFFFFFFFFFFFFFFFFFFFF AND PUSH20 0xFFFFFFFFFFFFFFFFFFFFFFFFFFFFFFFFFFFFFFFF AND SUB PUSH2 0xF8F JUMPI PUSH1 0x0 JUMPDEST PUSH1 0x3 PUSH1 0x0 DUP8 DUP2 MSTORE PUSH1 0x20 ADD SWAP1 DUP2 MSTORE PUSH1 0x20 ADD PUSH1 0x0 KECCAK256 DUP1 SLOAD SWAP1 POP DUP2 LT ISZERO PUSH2 0xF8D JUMPI PUSH1 0x3 PUSH1 0x0 DUP8 DUP2 MSTORE PUSH1 0x20 ADD SWAP1 DUP2 MSTORE PUSH1 0x20 ADD PUSH1 0x0 KECCAK256 DUP2 DUP2 SLOAD DUP2 LT PUSH2 0xED8 JUMPI PUSH2 0xED7 PUSH2 0x2919 JUMP JUMPDEST JUMPDEST SWAP1 PUSH1 0x0 MSTORE PUSH1 0x20 PUSH1 0x0 KECCAK256 SWAP1 PUSH1 0x20 SWAP2 DUP3 DUP3 DIV ADD SWAP2 SWAP1 MOD SWAP1 SLOAD SWAP1 PUSH2 0x100 EXP SWAP1 DIV PUSH1 0xFF AND PUSH1 0xFF AND PUSH1 0x2 PUSH1 0x0 DUP9 DUP2 MSTORE PUSH1 0x20 ADD SWAP1 DUP2 MSTORE PUSH1 0x20 ADD PUSH1 0x0 KECCAK256 DUP4 DUP2 SLOAD DUP2 LT PUSH2 0xF20 JUMPI PUSH2 0xF1F PUSH2 0x2919 JUMP JUMPDEST JUMPDEST SWAP1 PUSH1 0x0 MSTORE PUSH1 0x20 PUSH1 0x0 KECCAK256 SWAP1 PUSH1 0x2 MUL ADD PUSH1 0x1 ADD DUP3 DUP2 SLOAD DUP2 LT PUSH2 0xF43 JUMPI PUSH2 0xF42 PUSH2 0x2919 JUMP JUMPDEST JUMPDEST SWAP1 PUSH1 0x0 MSTORE PUSH1 0x20 PUSH1 0x0 KECCAK256 SWAP1 PUSH1 0x20 SWAP2 DUP3 DUP3 DIV ADD SWAP2 SWAP1 MOD SWAP1 SLOAD SWAP1 PUSH2 0x100 EXP SWAP1 DIV PUSH1 0xFF AND PUSH1 0xFF AND SUB PUSH2 0xF7A JUMPI DUP3 DUP1 PUSH2 0xF76 SWAP1 PUSH2 0x2977 JUMP JUMPDEST SWAP4 POP POP JUMPDEST DUP1 DUP1 PUSH2 0xF85 SWAP1 PUSH2 0x2977 JUMP JUMPDEST SWAP2 POP POP PUSH2 0xE95 JUMP JUMPDEST POP JUMPDEST DUP1 DUP1 PUSH2 0xF9A SWAP1 PUSH2 0x2977 JUMP JUMPDEST SWAP2 POP POP PUSH2 0xDEB JUMP JUMPDEST POP DUP1 SWAP2 POP POP SWAP3 SWAP2 POP POP JUMP JUMPDEST PUSH1 0x0 PUSH1 0x20 MSTORE DUP1 PUSH1 0x0 MSTORE PUSH1 0x40 PUSH1 0x0 KECCAK256 PUSH1 0x0 SWAP2 POP SWAP1 POP DUP1 PUSH1 0x0 ADD DUP1 SLOAD PUSH2 0xFD0 SWAP1 PUSH2 0x266A JUMP JUMPDEST DUP1 PUSH1 0x1F ADD PUSH1 0x20 DUP1 SWAP2 DIV MUL PUSH1 0x20 ADD PUSH1 0x40 MLOAD SWAP1 DUP2 ADD PUSH1 0x40 MSTORE DUP1 SWAP3 SWAP2 SWAP1 DUP2 DUP2 MSTORE PUSH1 0x20 ADD DUP3 DUP1 SLOAD PUSH2 0xFFC SWAP1 PUSH2 0x266A JUMP JUMPDEST DUP1 ISZERO PUSH2 0x1049 JUMPI DUP1 PUSH1 0x1F LT PUSH2 0x101E JUMPI PUSH2 0x100 DUP1 DUP4 SLOAD DIV MUL DUP4 MSTORE SWAP2 PUSH1 0x20 ADD SWAP2 PUSH2 0x1049 JUMP JUMPDEST DUP3 ADD SWAP2 SWAP1 PUSH1 0x0 MSTORE PUSH1 0x20 PUSH1 0x0 KECCAK256 SWAP1 JUMPDEST DUP2 SLOAD DUP2 MSTORE SWAP1 PUSH1 0x1 ADD SWAP1 PUSH1 0x20 ADD DUP1 DUP4 GT PUSH2 0x102C JUMPI DUP3 SWAP1 SUB PUSH1 0x1F AND DUP3 ADD SWAP2 JUMPDEST POP POP POP POP POP SWAP1 DUP1 PUSH1 0x1 ADD DUP1 SLOAD PUSH2 0x105E SWAP1 PUSH2 0x266A JUMP JUMPDEST DUP1 PUSH1 0x1F ADD PUSH1 0x20 DUP1 SWAP2 DIV MUL PUSH1 0x20 ADD PUSH1 0x40 MLOAD SWAP1 DUP2 ADD PUSH1 0x40 MSTORE DUP1 SWAP3 SWAP2 SWAP1 DUP2 DUP2 MSTORE PUSH1 0x20 ADD DUP3 DUP1 SLOAD PUSH2 0x108A SWAP1 PUSH2 0x266A JUMP JUMPDEST DUP1 ISZERO PUSH2 0x10D7 JUMPI DUP1 PUSH1 0x1F LT PUSH2 0x10AC JUMPI PUSH2 0x100 DUP1 DUP4 SLOAD DIV MUL DUP4 MSTORE SWAP2 PUSH1 0x20 ADD SWAP2 PUSH2 0x10D7 JUMP JUMPDEST DUP3 ADD SWAP2 SWAP1 PUSH1 0x0 MSTORE PUSH1 0x20 PUSH1 0x0 KECCAK256 SWAP1 JUMPDEST DUP2 SLOAD DUP2 MSTORE SWAP1 PUSH1 0x1 ADD SWAP1 PUSH1 0x20 ADD DUP1 DUP4 GT PUSH2 0x10BA JUMPI DUP3 SWAP1 SUB PUSH1 0x1F AND DUP3 ADD SWAP2 JUMPDEST POP POP POP POP POP SWAP1 DUP1 PUSH1 0x2 ADD DUP1 SLOAD PUSH2 0x10EC SWAP1 PUSH2 0x266A JUMP JUMPDEST DUP1 PUSH1 0x1F ADD PUSH1 0x20 DUP1 SWAP2 DIV MUL PUSH1 0x20 ADD PUSH1 0x40 MLOAD SWAP1 DUP2 ADD PUSH1 0x40 MSTORE DUP1 SWAP3 SWAP2 SWAP1 DUP2 DUP2 MSTORE PUSH1 0x20 ADD DUP3 DUP1 SLOAD PUSH2 0x1118 SWAP1 PUSH2 0x266A JUMP JUMPDEST DUP1 ISZERO PUSH2 0x1165 JUMPI DUP1 PUSH1 0x1F LT PUSH2 0x113A JUMPI PUSH2 0x100 DUP1 DUP4 SLOAD DIV MUL DUP4 MSTORE SWAP2 PUSH1 0x20 ADD SWAP2 PUSH2 0x1165 JUMP JUMPDEST DUP3 ADD SWAP2 SWAP1 PUSH1 0x0 MSTORE PUSH1 0x20 PUSH1 0x0 KECCAK256 SWAP1 JUMPDEST DUP2 SLOAD DUP2 MSTORE SWAP1 PUSH1 0x1 ADD SWAP1 PUSH1 0x20 ADD DUP1 DUP4 GT PUSH2 0x1148 JUMPI DUP3 SWAP1 SUB PUSH1 0x1F AND DUP3 ADD SWAP2 JUMPDEST POP POP POP POP POP SWAP1 DUP1 PUSH1 0x3 ADD DUP1 SLOAD PUSH2 0x117A SWAP1 PUSH2 0x266A JUMP JUMPDEST DUP1 PUSH1 0x1F ADD PUSH1 0x20 DUP1 SWAP2 DIV MUL PUSH1 0x20 ADD PUSH1 0x40 MLOAD SWAP1 DUP2 ADD PUSH1 0x40 MSTORE DUP1 SWAP3 SWAP2 SWAP1 DUP2 DUP2 MSTORE PUSH1 0x20 ADD DUP3 DUP1 SLOAD PUSH2 0x11A6 SWAP1 PUSH2 0x266A JUMP JUMPDEST DUP1 ISZERO PUSH2 0x11F3 JUMPI DUP1 PUSH1 0x1F LT PUSH2 0x11C8 JUMPI PUSH2 0x100 DUP1 DUP4 SLOAD DIV MUL DUP4 MSTORE SWAP2 PUSH1 0x20 ADD SWAP2 PUSH2 0x11F3 JUMP JUMPDEST DUP3 ADD SWAP2 SWAP1 PUSH1 0x0 MSTORE PUSH1 0x20 PUSH1 0x0 KECCAK256 SWAP1 JUMPDEST DUP2 SLOAD DUP2 MSTORE SWAP1 PUSH1 0x1 ADD SWAP1 PUSH1 0x20 ADD DUP1 DUP4 GT PUSH2 0x11D6 JUMPI DUP3 SWAP1 SUB PUSH1 0x1F AND DUP3 ADD SWAP2 JUMPDEST POP POP POP POP POP SWAP1 DUP1 PUSH1 0x4 ADD SLOAD SWAP1 DUP1 PUSH1 0x5 ADD SLOAD SWAP1 DUP1 PUSH1 0x6 ADD SLOAD SWAP1 DUP1 PUSH1 0x7 ADD PUSH1 0x0 SWAP1 SLOAD SWAP1 PUSH2 0x100 EXP SWAP1 DIV PUSH20 0xFFFFFFFFFFFFFFFFFFFFFFFFFFFFFFFFFFFFFFFF AND SWAP1 DUP1 PUSH1 0x7 ADD PUSH1 0x14 SWAP1 SLOAD SWAP1 PUSH2 0x100 EXP SWAP1 DIV PUSH1 0xFF AND SWAP1 POP DUP10 JUMP JUMPDEST PUSH1 0x60 PUSH1 0x0 DUP1 PUSH1 0xA SWAP1 POP PUSH1 0x0 DUP2 PUSH8 0xFFFFFFFFFFFFFFFF DUP2 GT ISZERO PUSH2 0x126D JUMPI PUSH2 0x126C PUSH2 0x1ABE JUMP JUMPDEST JUMPDEST PUSH1 0x40 MLOAD SWAP1 DUP1 DUP3 MSTORE DUP1 PUSH1 0x20 MUL PUSH1 0x20 ADD DUP3 ADD PUSH1 0x40 MSTORE DUP1 ISZERO PUSH2 0x12A6 JUMPI DUP2 PUSH1 0x20 ADD JUMPDEST PUSH2 0x1293 PUSH2 0x18D8 JUMP JUMPDEST DUP2 MSTORE PUSH1 0x20 ADD SWAP1 PUSH1 0x1 SWAP1 SUB SWAP1 DUP2 PUSH2 0x128B JUMPI SWAP1 POP JUMPDEST POP SWAP1 POP PUSH1 0x0 JUMPDEST PUSH1 0x4 SLOAD DUP2 LT ISZERO PUSH2 0x1610 JUMPI TIMESTAMP PUSH1 0x0 DUP1 DUP4 DUP2 MSTORE PUSH1 0x20 ADD SWAP1 DUP2 MSTORE PUSH1 0x20 ADD PUSH1 0x0 KECCAK256 PUSH1 0x5 ADD SLOAD GT ISZERO PUSH2 0x15FD JUMPI PUSH1 0x0 DUP1 DUP3 DUP2 MSTORE PUSH1 0x20 ADD SWAP1 DUP2 MSTORE PUSH1 0x20 ADD PUSH1 0x0 KECCAK256 PUSH1 0x40 MLOAD DUP1 PUSH2 0x120 ADD PUSH1 0x40 MSTORE SWAP1 DUP2 PUSH1 0x0 DUP3 ADD DUP1 SLOAD PUSH2 0x1301 SWAP1 PUSH2 0x266A JUMP JUMPDEST DUP1 PUSH1 0x1F ADD PUSH1 0x20 DUP1 SWAP2 DIV MUL PUSH1 0x20 ADD PUSH1 0x40 MLOAD SWAP1 DUP2 ADD PUSH1 0x40 MSTORE DUP1 SWAP3 SWAP2 SWAP1 DUP2 DUP2 MSTORE PUSH1 0x20 ADD DUP3 DUP1 SLOAD PUSH2 0x132D SWAP1 PUSH2 0x266A JUMP JUMPDEST DUP1 ISZERO PUSH2 0x137A JUMPI DUP1 PUSH1 0x1F LT PUSH2 0x134F JUMPI PUSH2 0x100 DUP1 DUP4 SLOAD DIV MUL DUP4 MSTORE SWAP2 PUSH1 0x20 ADD SWAP2 PUSH2 0x137A JUMP JUMPDEST DUP3 ADD SWAP2 SWAP1 PUSH1 0x0 MSTORE PUSH1 0x20 PUSH1 0x0 KECCAK256 SWAP1 JUMPDEST DUP2 SLOAD DUP2 MSTORE SWAP1 PUSH1 0x1 ADD SWAP1 PUSH1 0x20 ADD DUP1 DUP4 GT PUSH2 0x135D JUMPI DUP3 SWAP1 SUB PUSH1 0x1F AND DUP3 ADD SWAP2 JUMPDEST POP POP POP POP POP DUP2 MSTORE PUSH1 0x20 ADD PUSH1 0x1 DUP3 ADD DUP1 SLOAD PUSH2 0x1393 SWAP1 PUSH2 0x266A JUMP JUMPDEST DUP1 PUSH1 0x1F ADD PUSH1 0x20 DUP1 SWAP2 DIV MUL PUSH1 0x20 ADD PUSH1 0x40 MLOAD SWAP1 DUP2 ADD PUSH1 0x40 MSTORE DUP1 SWAP3 SWAP2 SWAP1 DUP2 DUP2 MSTORE PUSH1 0x20 ADD DUP3 DUP1 SLOAD PUSH2 0x13BF SWAP1 PUSH2 0x266A JUMP JUMPDEST DUP1 ISZERO PUSH2 0x140C JUMPI DUP1 PUSH1 0x1F LT PUSH2 0x13E1 JUMPI PUSH2 0x100 DUP1 DUP4 SLOAD DIV MUL DUP4 MSTORE SWAP2 PUSH1 0x20 ADD SWAP2 PUSH2 0x140C JUMP JUMPDEST DUP3 ADD SWAP2 SWAP1 PUSH1 0x0 MSTORE PUSH1 0x20 PUSH1 0x0 KECCAK256 SWAP1 JUMPDEST DUP2 SLOAD DUP2 MSTORE SWAP1 PUSH1 0x1 ADD SWAP1 PUSH1 0x20 ADD DUP1 DUP4 GT PUSH2 0x13EF JUMPI DUP3 SWAP1 SUB PUSH1 0x1F AND DUP3 ADD SWAP2 JUMPDEST POP POP POP POP POP DUP2 MSTORE PUSH1 0x20 ADD PUSH1 0x2 DUP3 ADD DUP1 SLOAD PUSH2 0x1425 SWAP1 PUSH2 0x266A JUMP JUMPDEST DUP1 PUSH1 0x1F ADD PUSH1 0x20 DUP1 SWAP2 DIV MUL PUSH1 0x20 ADD PUSH1 0x40 MLOAD SWAP1 DUP2 ADD PUSH1 0x40 MSTORE DUP1 SWAP3 SWAP2 SWAP1 DUP2 DUP2 MSTORE PUSH1 0x20 ADD DUP3 DUP1 SLOAD PUSH2 0x1451 SWAP1 PUSH2 0x266A JUMP JUMPDEST DUP1 ISZERO PUSH2 0x149E JUMPI DUP1 PUSH1 0x1F LT PUSH2 0x1473 JUMPI PUSH2 0x100 DUP1 DUP4 SLOAD DIV MUL DUP4 MSTORE SWAP2 PUSH1 0x20 ADD SWAP2 PUSH2 0x149E JUMP JUMPDEST DUP3 ADD SWAP2 SWAP1 PUSH1 0x0 MSTORE PUSH1 0x20 PUSH1 0x0 KECCAK256 SWAP1 JUMPDEST DUP2 SLOAD DUP2 MSTORE SWAP1 PUSH1 0x1 ADD SWAP1 PUSH1 0x20 ADD DUP1 DUP4 GT PUSH2 0x1481 JUMPI DUP3 SWAP1 SUB PUSH1 0x1F AND DUP3 ADD SWAP2 JUMPDEST POP POP POP POP POP DUP2 MSTORE PUSH1 0x20 ADD PUSH1 0x3 DUP3 ADD DUP1 SLOAD PUSH2 0x14B7 SWAP1 PUSH2 0x266A JUMP JUMPDEST DUP1 PUSH1 0x1F ADD PUSH1 0x20 DUP1 SWAP2 DIV MUL PUSH1 0x20 ADD PUSH1 0x40 MLOAD SWAP1 DUP2 ADD PUSH1 0x40 MSTORE DUP1 SWAP3 SWAP2 SWAP1 DUP2 DUP2 MSTORE PUSH1 0x20 ADD DUP3 DUP1 SLOAD PUSH2 0x14E3 SWAP1 PUSH2 0x266A JUMP JUMPDEST DUP1 ISZERO PUSH2 0x1530 JUMPI DUP1 PUSH1 0x1F LT PUSH2 0x1505 JUMPI PUSH2 0x100 DUP1 DUP4 SLOAD DIV MUL DUP4 MSTORE SWAP2 PUSH1 0x20 ADD SWAP2 PUSH2 0x1530 JUMP JUMPDEST DUP3 ADD SWAP2 SWAP1 PUSH1 0x0 MSTORE PUSH1 0x20 PUSH1 0x0 KECCAK256 SWAP1 JUMPDEST DUP2 SLOAD DUP2 MSTORE SWAP1 PUSH1 0x1 ADD SWAP1 PUSH1 0x20 ADD DUP1 DUP4 GT PUSH2 0x1513 JUMPI DUP3 SWAP1 SUB PUSH1 0x1F AND DUP3 ADD SWAP2 JUMPDEST POP POP POP POP POP DUP2 MSTORE PUSH1 0x20 ADD PUSH1 0x4 DUP3 ADD SLOAD DUP2 MSTORE PUSH1 0x20 ADD PUSH1 0x5 DUP3 ADD SLOAD DUP2 MSTORE PUSH1 0x20 ADD PUSH1 0x6 DUP3 ADD SLOAD DUP2 MSTORE PUSH1 0x20 ADD PUSH1 0x7 DUP3 ADD PUSH1 0x0 SWAP1 SLOAD SWAP1 PUSH2 0x100 EXP SWAP1 DIV PUSH20 0xFFFFFFFFFFFFFFFFFFFFFFFFFFFFFFFFFFFFFFFF AND PUSH20 0xFFFFFFFFFFFFFFFFFFFFFFFFFFFFFFFFFFFFFFFF AND PUSH20 0xFFFFFFFFFFFFFFFFFFFFFFFFFFFFFFFFFFFFFFFF AND DUP2 MSTORE PUSH1 0x20 ADD PUSH1 0x7 DUP3 ADD PUSH1 0x14 SWAP1 SLOAD SWAP1 PUSH2 0x100 EXP SWAP1 DIV PUSH1 0xFF AND ISZERO ISZERO ISZERO ISZERO DUP2 MSTORE POP POP DUP3 DUP6 DUP2 MLOAD DUP2 LT PUSH2 0x15DB JUMPI PUSH2 0x15DA PUSH2 0x2919 JUMP JUMPDEST JUMPDEST PUSH1 0x20 MUL PUSH1 0x20 ADD ADD DUP2 SWAP1 MSTORE POP DUP4 DUP1 PUSH2 0x15F1 SWAP1 PUSH2 0x2977 JUMP JUMPDEST SWAP5 POP POP DUP3 DUP5 SUB ISZERO PUSH2 0x1610 JUMPI JUMPDEST DUP1 DUP1 PUSH2 0x1608 SWAP1 PUSH2 0x2977 JUMP JUMPDEST SWAP2 POP POP PUSH2 0x12AC JUMP JUMPDEST POP DUP2 DUP4 LT ISZERO PUSH2 0x16D5 JUMPI PUSH1 0x0 DUP4 PUSH8 0xFFFFFFFFFFFFFFFF DUP2 GT ISZERO PUSH2 0x1635 JUMPI PUSH2 0x1634 PUSH2 0x1ABE JUMP JUMPDEST JUMPDEST PUSH1 0x40 MLOAD SWAP1 DUP1 DUP3 MSTORE DUP1 PUSH1 0x20 MUL PUSH1 0x20 ADD DUP3 ADD PUSH1 0x40 MSTORE DUP1 ISZERO PUSH2 0x166E JUMPI DUP2 PUSH1 0x20 ADD JUMPDEST PUSH2 0x165B PUSH2 0x18D8 JUMP JUMPDEST DUP2 MSTORE PUSH1 0x20 ADD SWAP1 PUSH1 0x1 SWAP1 SUB SWAP1 DUP2 PUSH2 0x1653 JUMPI SWAP1 POP JUMPDEST POP SWAP1 POP PUSH1 0x0 JUMPDEST DUP5 DUP2 LT ISZERO PUSH2 0x16C8 JUMPI DUP3 DUP2 DUP2 MLOAD DUP2 LT PUSH2 0x168F JUMPI PUSH2 0x168E PUSH2 0x2919 JUMP JUMPDEST JUMPDEST PUSH1 0x20 MUL PUSH1 0x20 ADD ADD MLOAD DUP3 DUP3 DUP2 MLOAD DUP2 LT PUSH2 0x16AA JUMPI PUSH2 0x16A9 PUSH2 0x2919 JUMP JUMPDEST JUMPDEST PUSH1 0x20 MUL PUSH1 0x20 ADD ADD DUP2 SWAP1 MSTORE POP DUP1 DUP1 PUSH2 0x16C0 SWAP1 PUSH2 0x2977 JUMP JUMPDEST SWAP2 POP POP PUSH2 0x1674 JUMP JUMPDEST POP DUP1 SWAP5 POP POP POP POP POP PUSH2 0x16DC JUMP JUMPDEST DUP1 SWAP4 POP POP POP POP JUMPDEST SWAP1 JUMP JUMPDEST PUSH1 0x1 PUSH1 0x20 MSTORE DUP2 PUSH1 0x0 MSTORE PUSH1 0x40 PUSH1 0x0 KECCAK256 DUP2 DUP2 SLOAD DUP2 LT PUSH2 0x16FB JUMPI PUSH1 0x0 DUP1 REVERT JUMPDEST SWAP1 PUSH1 0x0 MSTORE PUSH1 0x20 PUSH1 0x0 KECCAK256 SWAP1 PUSH1 0x5 MUL ADD PUSH1 0x0 SWAP2 POP SWAP2 POP POP DUP1 PUSH1 0x0 ADD DUP1 SLOAD PUSH2 0x171F SWAP1 PUSH2 0x266A JUMP JUMPDEST DUP1 PUSH1 0x1F ADD PUSH1 0x20 DUP1 SWAP2 DIV MUL PUSH1 0x20 ADD PUSH1 0x40 MLOAD SWAP1 DUP2 ADD PUSH1 0x40 MSTORE DUP1 SWAP3 SWAP2 SWAP1 DUP2 DUP2 MSTORE PUSH1 0x20 ADD DUP3 DUP1 SLOAD PUSH2 0x174B SWAP1 PUSH2 0x266A JUMP JUMPDEST DUP1 ISZERO PUSH2 0x1798 JUMPI DUP1 PUSH1 0x1F LT PUSH2 0x176D JUMPI PUSH2 0x100 DUP1 DUP4 SLOAD DIV MUL DUP4 MSTORE SWAP2 PUSH1 0x20 ADD SWAP2 PUSH2 0x1798 JUMP JUMPDEST DUP3 ADD SWAP2 SWAP1 PUSH1 0x0 MSTORE PUSH1 0x20 PUSH1 0x0 KECCAK256 SWAP1 JUMPDEST DUP2 SLOAD DUP2 MSTORE SWAP1 PUSH1 0x1 ADD SWAP1 PUSH1 0x20 ADD DUP1 DUP4 GT PUSH2 0x177B JUMPI DUP3 SWAP1 SUB PUSH1 0x1F AND DUP3 ADD SWAP2 JUMPDEST POP POP POP POP POP SWAP1 POP DUP2 JUMP JUMPDEST PUSH1 0x3 PUSH1 0x20 MSTORE DUP2 PUSH1 0x0 MSTORE PUSH1 0x40 PUSH1 0x0 KECCAK256 DUP2 DUP2 SLOAD DUP2 LT PUSH2 0x17BE JUMPI PUSH1 0x0 DUP1 REVERT JUMPDEST SWAP1 PUSH1 0x0 MSTORE PUSH1 0x20 PUSH1 0x0 KECCAK256 SWAP1 PUSH1 0x20 SWAP2 DUP3 DUP3 DIV ADD SWAP2 SWAP1 MOD SWAP2 POP SWAP2 POP SWAP1 SLOAD SWAP1 PUSH2 0x100 EXP SWAP1 DIV PUSH1 0xFF AND DUP2 JUMP JUMPDEST DUP3 PUSH1 0x4 DUP2 ADD SWAP3 DUP3 ISZERO PUSH2 0x1820 JUMPI SWAP2 PUSH1 0x20 MUL DUP3 ADD JUMPDEST DUP3 DUP2 GT ISZERO PUSH2 0x181F JUMPI DUP3 MLOAD DUP3 SWAP1 DUP2 PUSH2 0x180F SWAP2 SWAP1 PUSH2 0x2847 JUMP JUMPDEST POP SWAP2 PUSH1 0x20 ADD SWAP2 SWAP1 PUSH1 0x1 ADD SWAP1 PUSH2 0x17F8 JUMP JUMPDEST JUMPDEST POP SWAP1 POP PUSH2 0x182D SWAP2 SWAP1 PUSH2 0x193C JUMP JUMPDEST POP SWAP1 JUMP JUMPDEST DUP3 DUP1 SLOAD DUP3 DUP3 SSTORE SWAP1 PUSH1 0x0 MSTORE PUSH1 0x20 PUSH1 0x0 KECCAK256 SWAP1 PUSH1 0x1F ADD PUSH1 0x20 SWAP1 DIV DUP2 ADD SWAP3 DUP3 ISZERO PUSH2 0x18C7 JUMPI SWAP2 PUSH1 0x20 MUL DUP3 ADD PUSH1 0x0 JUMPDEST DUP4 DUP3 GT ISZERO PUSH2 0x1898 JUMPI DUP4 MLOAD DUP4 DUP3 PUSH2 0x100 EXP DUP2 SLOAD DUP2 PUSH1 0xFF MUL NOT AND SWAP1 DUP4 PUSH1 0xFF AND MUL OR SWAP1 SSTORE POP SWAP3 PUSH1 0x20 ADD SWAP3 PUSH1 0x1 ADD PUSH1 0x20 DUP2 PUSH1 0x0 ADD DIV SWAP3 DUP4 ADD SWAP3 PUSH1 0x1 SUB MUL PUSH2 0x185A JUMP JUMPDEST DUP1 ISZERO PUSH2 0x18C5 JUMPI DUP3 DUP2 PUSH2 0x100 EXP DUP2 SLOAD SWAP1 PUSH1 0xFF MUL NOT AND SWAP1 SSTORE PUSH1 0x1 ADD PUSH1 0x20 DUP2 PUSH1 0x0 ADD DIV SWAP3 DUP4 ADD SWAP3 PUSH1 0x1 SUB MUL PUSH2 0x1898 JUMP JUMPDEST POP JUMPDEST POP SWAP1 POP PUSH2 0x18D4 SWAP2 SWAP1 PUSH2 0x1960 JUMP JUMPDEST POP SWAP1 JUMP JUMPDEST PUSH1 0x40 MLOAD DUP1 PUSH2 0x120 ADD PUSH1 0x40 MSTORE DUP1 PUSH1 0x60 DUP2 MSTORE PUSH1 0x20 ADD PUSH1 0x60 DUP2 MSTORE PUSH1 0x20 ADD PUSH1 0x60 DUP2 MSTORE PUSH1 0x20 ADD PUSH1 0x60 DUP2 MSTORE PUSH1 0x20 ADD PUSH1 0x0 DUP2 MSTORE PUSH1 0x20 ADD PUSH1 0x0 DUP2 MSTORE PUSH1 0x20 ADD PUSH1 0x0 DUP2 MSTORE PUSH1 0x20 ADD PUSH1 0x0 PUSH20 0xFFFFFFFFFFFFFFFFFFFFFFFFFFFFFFFFFFFFFFFF AND DUP2 MSTORE PUSH1 0x20 ADD PUSH1 0x0 ISZERO ISZERO DUP2 MSTORE POP SWAP1 JUMP JUMPDEST JUMPDEST DUP1 DUP3 GT ISZERO PUSH2 0x195C JUMPI PUSH1 0x0 DUP2 DUP2 PUSH2 0x1953 SWAP2 SWAP1 PUSH2 0x197D JUMP JUMPDEST POP PUSH1 0x1 ADD PUSH2 0x193D JUMP JUMPDEST POP SWAP1 JUMP JUMPDEST JUMPDEST DUP1 DUP3 GT ISZERO PUSH2 0x1979 JUMPI PUSH1 0x0 DUP2 PUSH1 0x0 SWAP1 SSTORE POP PUSH1 0x1 ADD PUSH2 0x1961 JUMP JUMPDEST POP SWAP1 JUMP JUMPDEST POP DUP1 SLOAD PUSH2 0x1989 SWAP1 PUSH2 0x266A JUMP JUMPDEST PUSH1 0x0 DUP3 SSTORE DUP1 PUSH1 0x1F LT PUSH2 0x199B JUMPI POP PUSH2 0x19BA JUMP JUMPDEST PUSH1 0x1F ADD PUSH1 0x20 SWAP1 DIV SWAP1 PUSH1 0x0 MSTORE PUSH1 0x20 PUSH1 0x0 KECCAK256 SWAP1 DUP2 ADD SWAP1 PUSH2 0x19B9 SWAP2 SWAP1 PUSH2 0x1960 JUMP JUMPDEST JUMPDEST POP JUMP JUMPDEST PUSH1 0x0 PUSH1 0x40 MLOAD SWAP1 POP SWAP1 JUMP JUMPDEST PUSH1 0x0 DUP1 REVERT JUMPDEST PUSH1 0x0 DUP1 REVERT JUMPDEST PUSH1 0x0 DUP2 SWAP1 POP SWAP2 SWAP1 POP JUMP JUMPDEST PUSH2 0x19E4 DUP2 PUSH2 0x19D1 JUMP JUMPDEST DUP2 EQ PUSH2 0x19EF JUMPI PUSH1 0x0 DUP1 REVERT JUMPDEST POP JUMP JUMPDEST PUSH1 0x0 DUP2 CALLDATALOAD SWAP1 POP PUSH2 0x1A01 DUP2 PUSH2 0x19DB JUMP JUMPDEST SWAP3 SWAP2 POP POP JUMP JUMPDEST PUSH1 0x0 DUP1 PUSH1 0x40 DUP4 DUP6 SUB SLT ISZERO PUSH2 0x1A1E JUMPI PUSH2 0x1A1D PUSH2 0x19C7 JUMP JUMPDEST JUMPDEST PUSH1 0x0 PUSH2 0x1A2C DUP6 DUP3 DUP7 ADD PUSH2 0x19F2 JUMP JUMPDEST SWAP3 POP POP PUSH1 0x20 PUSH2 0x1A3D DUP6 DUP3 DUP7 ADD PUSH2 0x19F2 JUMP JUMPDEST SWAP2 POP POP SWAP3 POP SWAP3 SWAP1 POP JUMP JUMPDEST PUSH1 0x0 PUSH20 0xFFFFFFFFFFFFFFFFFFFFFFFFFFFFFFFFFFFFFFFF DUP3 AND SWAP1 POP SWAP2 SWAP1 POP JUMP JUMPDEST PUSH1 0x0 PUSH2 0x1A72 DUP3 PUSH2 0x1A47 JUMP JUMPDEST SWAP1 POP SWAP2 SWAP1 POP JUMP JUMPDEST PUSH2 0x1A82 DUP2 PUSH2 0x1A67 JUMP JUMPDEST DUP3 MSTORE POP POP JUMP JUMPDEST PUSH1 0x0 PUSH1 0x20 DUP3 ADD SWAP1 POP PUSH2 0x1A9D PUSH1 0x0 DUP4 ADD DUP5 PUSH2 0x1A79 JUMP JUMPDEST SWAP3 SWAP2 POP POP JUMP JUMPDEST PUSH1 0x0 DUP1 REVERT JUMPDEST PUSH1 0x0 DUP1 REVERT JUMPDEST PUSH1 0x0 PUSH1 0x1F NOT PUSH1 0x1F DUP4 ADD AND SWAP1 POP SWAP2 SWAP1 POP JUMP JUMPDEST PUSH32 0x4E487B7100000000000000000000000000000000000000000000000000000000 PUSH1 0x0 MSTORE PUSH1 0x41 PUSH1 0x4 MSTORE PUSH1 0x24 PUSH1 0x0 REVERT JUMPDEST PUSH2 0x1AF6 DUP3 PUSH2 0x1AAD JUMP JUMPDEST DUP2 ADD DUP2 DUP2 LT PUSH8 0xFFFFFFFFFFFFFFFF DUP3 GT OR ISZERO PUSH2 0x1B15 JUMPI PUSH2 0x1B14 PUSH2 0x1ABE JUMP JUMPDEST JUMPDEST DUP1 PUSH1 0x40 MSTORE POP POP POP JUMP JUMPDEST PUSH1 0x0 PUSH2 0x1B28 PUSH2 0x19BD JUMP JUMPDEST SWAP1 POP PUSH2 0x1B34 DUP3 DUP3 PUSH2 0x1AED JUMP JUMPDEST SWAP2 SWAP1 POP JUMP JUMPDEST PUSH1 0x0 PUSH8 0xFFFFFFFFFFFFFFFF DUP3 GT ISZERO PUSH2 0x1B54 JUMPI PUSH2 0x1B53 PUSH2 0x1ABE JUMP JUMPDEST JUMPDEST PUSH2 0x1B5D DUP3 PUSH2 0x1AAD JUMP JUMPDEST SWAP1 POP PUSH1 0x20 DUP2 ADD SWAP1 POP SWAP2 SWAP1 POP JUMP JUMPDEST DUP3 DUP2 DUP4 CALLDATACOPY PUSH1 0x0 DUP4 DUP4 ADD MSTORE POP POP POP JUMP JUMPDEST PUSH1 0x0 PUSH2 0x1B8C PUSH2 0x1B87 DUP5 PUSH2 0x1B39 JUMP JUMPDEST PUSH2 0x1B1E JUMP JUMPDEST SWAP1 POP DUP3 DUP2 MSTORE PUSH1 0x20 DUP2 ADD DUP5 DUP5 DUP5 ADD GT ISZERO PUSH2 0x1BA8 JUMPI PUSH2 0x1BA7 PUSH2 0x1AA8 JUMP JUMPDEST JUMPDEST PUSH2 0x1BB3 DUP5 DUP3 DUP6 PUSH2 0x1B6A JUMP JUMPDEST POP SWAP4 SWAP3 POP POP POP JUMP JUMPDEST PUSH1 0x0 DUP3 PUSH1 0x1F DUP4 ADD SLT PUSH2 0x1BD0 JUMPI PUSH2 0x1BCF PUSH2 0x1AA3 JUMP JUMPDEST JUMPDEST DUP2 CALLDATALOAD PUSH2 0x1BE0 DUP5 DUP3 PUSH1 0x20 DUP7 ADD PUSH2 0x1B79 JUMP JUMPDEST SWAP2 POP POP SWAP3 SWAP2 POP POP JUMP JUMPDEST PUSH1 0x0 PUSH8 0xFFFFFFFFFFFFFFFF DUP3 GT ISZERO PUSH2 0x1C04 JUMPI PUSH2 0x1C03 PUSH2 0x1ABE JUMP JUMPDEST JUMPDEST PUSH1 0x20 DUP3 MUL SWAP1 POP PUSH1 0x20 DUP2 ADD SWAP1 POP SWAP2 SWAP1 POP JUMP JUMPDEST PUSH1 0x0 DUP1 REVERT JUMPDEST PUSH1 0x0 DUP1 REVERT JUMPDEST PUSH1 0x0 DUP1 REVERT JUMPDEST PUSH1 0x0 PUSH8 0xFFFFFFFFFFFFFFFF DUP3 GT ISZERO PUSH2 0x1C3F JUMPI PUSH2 0x1C3E PUSH2 0x1ABE JUMP JUMPDEST JUMPDEST PUSH1 0x20 DUP3 MUL SWAP1 POP SWAP2 SWAP1 POP JUMP JUMPDEST PUSH1 0x0 PUSH2 0x1C5D PUSH2 0x1C58 DUP5 PUSH2 0x1C24 JUMP JUMPDEST PUSH2 0x1B1E JUMP JUMPDEST SWAP1 POP DUP1 PUSH1 0x20 DUP5 MUL DUP4 ADD DUP6 DUP2 GT ISZERO PUSH2 0x1C77 JUMPI PUSH2 0x1C76 PUSH2 0x1C15 JUMP JUMPDEST JUMPDEST DUP4 JUMPDEST DUP2 DUP2 LT ISZERO PUSH2 0x1CBE JUMPI DUP1 CALLDATALOAD PUSH8 0xFFFFFFFFFFFFFFFF DUP2 GT ISZERO PUSH2 0x1C9C JUMPI PUSH2 0x1C9B PUSH2 0x1AA3 JUMP JUMPDEST JUMPDEST DUP1 DUP7 ADD PUSH2 0x1CA9 DUP10 DUP3 PUSH2 0x1BBB JUMP JUMPDEST DUP6 MSTORE PUSH1 0x20 DUP6 ADD SWAP5 POP POP POP PUSH1 0x20 DUP2 ADD SWAP1 POP PUSH2 0x1C79 JUMP JUMPDEST POP POP POP SWAP4 SWAP3 POP POP POP JUMP JUMPDEST PUSH1 0x0 DUP3 PUSH1 0x1F DUP4 ADD SLT PUSH2 0x1CDD JUMPI PUSH2 0x1CDC PUSH2 0x1AA3 JUMP JUMPDEST JUMPDEST PUSH1 0x4 PUSH2 0x1CEA DUP5 DUP3 DUP6 PUSH2 0x1C4A JUMP JUMPDEST SWAP2 POP POP SWAP3 SWAP2 POP POP JUMP JUMPDEST PUSH1 0x0 PUSH1 0x40 DUP3 DUP5 SUB SLT ISZERO PUSH2 0x1D09 JUMPI PUSH2 0x1D08 PUSH2 0x1C1A JUMP JUMPDEST JUMPDEST PUSH2 0x1D13 PUSH1 0x40 PUSH2 0x1B1E JUMP JUMPDEST SWAP1 POP PUSH1 0x0 DUP3 ADD CALLDATALOAD PUSH8 0xFFFFFFFFFFFFFFFF DUP2 GT ISZERO PUSH2 0x1D33 JUMPI PUSH2 0x1D32 PUSH2 0x1C1F JUMP JUMPDEST JUMPDEST PUSH2 0x1D3F DUP5 DUP3 DUP6 ADD PUSH2 0x1BBB JUMP JUMPDEST PUSH1 0x0 DUP4 ADD MSTORE POP PUSH1 0x20 DUP3 ADD CALLDATALOAD PUSH8 0xFFFFFFFFFFFFFFFF DUP2 GT ISZERO PUSH2 0x1D63 JUMPI PUSH2 0x1D62 PUSH2 0x1C1F JUMP JUMPDEST JUMPDEST PUSH2 0x1D6F DUP5 DUP3 DUP6 ADD PUSH2 0x1CC8 JUMP JUMPDEST PUSH1 0x20 DUP4 ADD MSTORE POP SWAP3 SWAP2 POP POP JUMP JUMPDEST PUSH1 0x0 PUSH2 0x1D8E PUSH2 0x1D89 DUP5 PUSH2 0x1BE9 JUMP JUMPDEST PUSH2 0x1B1E JUMP JUMPDEST SWAP1 POP DUP1 DUP4 DUP3 MSTORE PUSH1 0x20 DUP3 ADD SWAP1 POP PUSH1 0x20 DUP5 MUL DUP4 ADD DUP6 DUP2 GT ISZERO PUSH2 0x1DB1 JUMPI PUSH2 0x1DB0 PUSH2 0x1C15 JUMP JUMPDEST JUMPDEST DUP4 JUMPDEST DUP2 DUP2 LT ISZERO PUSH2 0x1DF8 JUMPI DUP1 CALLDATALOAD PUSH8 0xFFFFFFFFFFFFFFFF DUP2 GT ISZERO PUSH2 0x1DD6 JUMPI PUSH2 0x1DD5 PUSH2 0x1AA3 JUMP JUMPDEST JUMPDEST DUP1 DUP7 ADD PUSH2 0x1DE3 DUP10 DUP3 PUSH2 0x1CF3 JUMP JUMPDEST DUP6 MSTORE PUSH1 0x20 DUP6 ADD SWAP5 POP POP POP PUSH1 0x20 DUP2 ADD SWAP1 POP PUSH2 0x1DB3 JUMP JUMPDEST POP POP POP SWAP4 SWAP3 POP POP POP JUMP JUMPDEST PUSH1 0x0 DUP3 PUSH1 0x1F DUP4 ADD SLT PUSH2 0x1E17 JUMPI PUSH2 0x1E16 PUSH2 0x1AA3 JUMP JUMPDEST JUMPDEST DUP2 CALLDATALOAD PUSH2 0x1E27 DUP5 DUP3 PUSH1 0x20 DUP7 ADD PUSH2 0x1D7B JUMP JUMPDEST SWAP2 POP POP SWAP3 SWAP2 POP POP JUMP JUMPDEST PUSH1 0x0 DUP1 PUSH1 0x0 DUP1 PUSH1 0x0 DUP1 PUSH1 0x0 PUSH1 0xE0 DUP9 DUP11 SUB SLT ISZERO PUSH2 0x1E4F JUMPI PUSH2 0x1E4E PUSH2 0x19C7 JUMP JUMPDEST JUMPDEST PUSH1 0x0 DUP9 ADD CALLDATALOAD PUSH8 0xFFFFFFFFFFFFFFFF DUP2 GT ISZERO PUSH2 0x1E6D JUMPI PUSH2 0x1E6C PUSH2 0x19CC JUMP JUMPDEST JUMPDEST PUSH2 0x1E79 DUP11 DUP3 DUP12 ADD PUSH2 0x1BBB JUMP JUMPDEST SWAP8 POP POP PUSH1 0x20 DUP9 ADD CALLDATALOAD PUSH8 0xFFFFFFFFFFFFFFFF DUP2 GT ISZERO PUSH2 0x1E9A JUMPI PUSH2 0x1E99 PUSH2 0x19CC JUMP JUMPDEST JUMPDEST PUSH2 0x1EA6 DUP11 DUP3 DUP12 ADD PUSH2 0x1BBB JUMP JUMPDEST SWAP7 POP POP PUSH1 0x40 DUP9 ADD CALLDATALOAD PUSH8 0xFFFFFFFFFFFFFFFF DUP2 GT ISZERO PUSH2 0x1EC7 JUMPI PUSH2 0x1EC6 PUSH2 0x19CC JUMP JUMPDEST JUMPDEST PUSH2 0x1ED3 DUP11 DUP3 DUP12 ADD PUSH2 0x1BBB JUMP JUMPDEST SWAP6 POP POP PUSH1 0x60 DUP9 ADD CALLDATALOAD PUSH8 0xFFFFFFFFFFFFFFFF DUP2 GT ISZERO PUSH2 0x1EF4 JUMPI PUSH2 0x1EF3 PUSH2 0x19CC JUMP JUMPDEST JUMPDEST PUSH2 0x1F00 DUP11 DUP3 DUP12 ADD PUSH2 0x1BBB JUMP JUMPDEST SWAP5 POP POP PUSH1 0x80 DUP9 ADD CALLDATALOAD PUSH8 0xFFFFFFFFFFFFFFFF DUP2 GT ISZERO PUSH2 0x1F21 JUMPI PUSH2 0x1F20 PUSH2 0x19CC JUMP JUMPDEST JUMPDEST PUSH2 0x1F2D DUP11 DUP3 DUP12 ADD PUSH2 0x1E02 JUMP JUMPDEST SWAP4 POP POP PUSH1 0xA0 PUSH2 0x1F3E DUP11 DUP3 DUP12 ADD PUSH2 0x19F2 JUMP JUMPDEST SWAP3 POP POP PUSH1 0xC0 PUSH2 0x1F4F DUP11 DUP3 DUP12 ADD PUSH2 0x19F2 JUMP JUMPDEST SWAP2 POP POP SWAP3 SWAP6 SWAP9 SWAP2 SWAP5 SWAP8 POP SWAP3 SWAP6 POP JUMP JUMPDEST PUSH2 0x1F67 DUP2 PUSH2 0x19D1 JUMP JUMPDEST DUP3 MSTORE POP POP JUMP JUMPDEST PUSH1 0x0 PUSH1 0x20 DUP3 ADD SWAP1 POP PUSH2 0x1F82 PUSH1 0x0 DUP4 ADD DUP5 PUSH2 0x1F5E JUMP JUMPDEST SWAP3 SWAP2 POP POP JUMP JUMPDEST PUSH1 0x0 PUSH8 0xFFFFFFFFFFFFFFFF DUP3 GT ISZERO PUSH2 0x1FA3 JUMPI PUSH2 0x1FA2 PUSH2 0x1ABE JUMP JUMPDEST JUMPDEST PUSH1 0x20 DUP3 MUL SWAP1 POP PUSH1 0x20 DUP2 ADD SWAP1 POP SWAP2 SWAP1 POP JUMP JUMPDEST PUSH1 0x0 PUSH1 0xFF DUP3 AND SWAP1 POP SWAP2 SWAP1 POP JUMP JUMPDEST PUSH2 0x1FCA DUP2 PUSH2 0x1FB4 JUMP JUMPDEST DUP2 EQ PUSH2 0x1FD5 JUMPI PUSH1 0x0 DUP1 REVERT JUMPDEST POP JUMP JUMPDEST PUSH1 0x0 DUP2 CALLDATALOAD SWAP1 POP PUSH2 0x1FE7 DUP2 PUSH2 0x1FC1 JUMP JUMPDEST SWAP3 SWAP2 POP POP JUMP JUMPDEST PUSH1 0x0 PUSH2 0x2000 PUSH2 0x1FFB DUP5 PUSH2 0x1F88 JUMP JUMPDEST PUSH2 0x1B1E JUMP JUMPDEST SWAP1 POP DUP1 DUP4 DUP3 MSTORE PUSH1 0x20 DUP3 ADD SWAP1 POP PUSH1 0x20 DUP5 MUL DUP4 ADD DUP6 DUP2 GT ISZERO PUSH2 0x2023 JUMPI PUSH2 0x2022 PUSH2 0x1C15 JUMP JUMPDEST JUMPDEST DUP4 JUMPDEST DUP2 DUP2 LT ISZERO PUSH2 0x204C JUMPI DUP1 PUSH2 0x2038 DUP9 DUP3 PUSH2 0x1FD8 JUMP JUMPDEST DUP5 MSTORE PUSH1 0x20 DUP5 ADD SWAP4 POP POP PUSH1 0x20 DUP2 ADD SWAP1 POP PUSH2 0x2025 JUMP JUMPDEST POP POP POP SWAP4 SWAP3 POP POP POP JUMP JUMPDEST PUSH1 0x0 DUP3 PUSH1 0x1F DUP4 ADD SLT PUSH2 0x206B JUMPI PUSH2 0x206A PUSH2 0x1AA3 JUMP JUMPDEST JUMPDEST DUP2 CALLDATALOAD PUSH2 0x207B DUP5 DUP3 PUSH1 0x20 DUP7 ADD PUSH2 0x1FED JUMP JUMPDEST SWAP2 POP POP SWAP3 SWAP2 POP POP JUMP JUMPDEST PUSH1 0x0 DUP1 PUSH1 0x40 DUP4 DUP6 SUB SLT ISZERO PUSH2 0x209B JUMPI PUSH2 0x209A PUSH2 0x19C7 JUMP JUMPDEST JUMPDEST PUSH1 0x0 PUSH2 0x20A9 DUP6 DUP3 DUP7 ADD PUSH2 0x19F2 JUMP JUMPDEST SWAP3 POP POP PUSH1 0x20 DUP4 ADD CALLDATALOAD PUSH8 0xFFFFFFFFFFFFFFFF DUP2 GT ISZERO PUSH2 0x20CA JUMPI PUSH2 0x20C9 PUSH2 0x19CC JUMP JUMPDEST JUMPDEST PUSH2 0x20D6 DUP6 DUP3 DUP7 ADD PUSH2 0x2056 JUMP JUMPDEST SWAP2 POP POP SWAP3 POP SWAP3 SWAP1 POP JUMP JUMPDEST PUSH1 0x0 DUP2 MLOAD SWAP1 POP SWAP2 SWAP1 POP JUMP JUMPDEST PUSH1 0x0 DUP3 DUP3 MSTORE PUSH1 0x20 DUP3 ADD SWAP1 POP SWAP3 SWAP2 POP POP JUMP JUMPDEST PUSH1 0x0 DUP2 SWAP1 POP PUSH1 0x20 DUP3 ADD SWAP1 POP SWAP2 SWAP1 POP JUMP JUMPDEST PUSH1 0x0 DUP2 MLOAD SWAP1 POP SWAP2 SWAP1 POP JUMP JUMPDEST PUSH1 0x0 DUP3 DUP3 MSTORE PUSH1 0x20 DUP3 ADD SWAP1 POP SWAP3 SWAP2 POP POP JUMP JUMPDEST PUSH1 0x0 JUMPDEST DUP4 DUP2 LT ISZERO PUSH2 0x2146 JUMPI DUP1 DUP3 ADD MLOAD DUP2 DUP5 ADD MSTORE PUSH1 0x20 DUP2 ADD SWAP1 POP PUSH2 0x212B JUMP JUMPDEST PUSH1 0x0 DUP5 DUP5 ADD MSTORE POP POP POP POP JUMP JUMPDEST PUSH1 0x0 PUSH2 0x215D DUP3 PUSH2 0x210C JUMP JUMPDEST PUSH2 0x2167 DUP2 DUP6 PUSH2 0x2117 JUMP JUMPDEST SWAP4 POP PUSH2 0x2177 DUP2 DUP6 PUSH1 0x20 DUP7 ADD PUSH2 0x2128 JUMP JUMPDEST PUSH2 0x2180 DUP2 PUSH2 0x1AAD JUMP JUMPDEST DUP5 ADD SWAP2 POP POP SWAP3 SWAP2 POP POP JUMP JUMPDEST PUSH2 0x2194 DUP2 PUSH2 0x19D1 JUMP JUMPDEST DUP3 MSTORE POP POP JUMP JUMPDEST PUSH2 0x21A3 DUP2 PUSH2 0x1A67 JUMP JUMPDEST DUP3 MSTORE POP POP JUMP JUMPDEST PUSH1 0x0 DUP2 ISZERO ISZERO SWAP1 POP SWAP2 SWAP1 POP JUMP JUMPDEST PUSH2 0x21BE DUP2 PUSH2 0x21A9 JUMP JUMPDEST DUP3 MSTORE POP POP JUMP JUMPDEST PUSH1 0x0 PUSH2 0x120 DUP4 ADD PUSH1 0x0 DUP4 ADD MLOAD DUP5 DUP3 SUB PUSH1 0x0 DUP7 ADD MSTORE PUSH2 0x21E2 DUP3 DUP3 PUSH2 0x2152 JUMP JUMPDEST SWAP2 POP POP PUSH1 0x20 DUP4 ADD MLOAD DUP5 DUP3 SUB PUSH1 0x20 DUP7 ADD MSTORE PUSH2 0x21FC DUP3 DUP3 PUSH2 0x2152 JUMP JUMPDEST SWAP2 POP POP PUSH1 0x40 DUP4 ADD MLOAD DUP5 DUP3 SUB PUSH1 0x40 DUP7 ADD MSTORE PUSH2 0x2216 DUP3 DUP3 PUSH2 0x2152 JUMP JUMPDEST SWAP2 POP POP PUSH1 0x60 DUP4 ADD MLOAD DUP5 DUP3 SUB PUSH1 0x60 DUP7 ADD MSTORE PUSH2 0x2230 DUP3 DUP3 PUSH2 0x2152 JUMP JUMPDEST SWAP2 POP POP PUSH1 0x80 DUP4 ADD MLOAD PUSH2 0x2245 PUSH1 0x80 DUP7 ADD DUP3 PUSH2 0x218B JUMP JUMPDEST POP PUSH1 0xA0 DUP4 ADD MLOAD PUSH2 0x2258 PUSH1 0xA0 DUP7 ADD DUP3 PUSH2 0x218B JUMP JUMPDEST POP PUSH1 0xC0 DUP4 ADD MLOAD PUSH2 0x226B PUSH1 0xC0 DUP7 ADD DUP3 PUSH2 0x218B JUMP JUMPDEST POP PUSH1 0xE0 DUP4 ADD MLOAD PUSH2 0x227E PUSH1 0xE0 DUP7 ADD DUP3 PUSH2 0x219A JUMP JUMPDEST POP PUSH2 0x100 DUP4 ADD MLOAD PUSH2 0x2293 PUSH2 0x100 DUP7 ADD DUP3 PUSH2 0x21B5 JUMP JUMPDEST POP DUP1 SWAP2 POP POP SWAP3 SWAP2 POP POP JUMP JUMPDEST PUSH1 0x0 PUSH2 0x22AA DUP4 DUP4 PUSH2 0x21C4 JUMP JUMPDEST SWAP1 POP SWAP3 SWAP2 POP POP JUMP JUMPDEST PUSH1 0x0 PUSH1 0x20 DUP3 ADD SWAP1 POP SWAP2 SWAP1 POP JUMP JUMPDEST PUSH1 0x0 PUSH2 0x22CA DUP3 PUSH2 0x20E0 JUMP JUMPDEST PUSH2 0x22D4 DUP2 DUP6 PUSH2 0x20EB JUMP JUMPDEST SWAP4 POP DUP4 PUSH1 0x20 DUP3 MUL DUP6 ADD PUSH2 0x22E6 DUP6 PUSH2 0x20FC JUMP JUMPDEST DUP1 PUSH1 0x0 JUMPDEST DUP6 DUP2 LT ISZERO PUSH2 0x2322 JUMPI DUP5 DUP5 SUB DUP10 MSTORE DUP2 MLOAD PUSH2 0x2303 DUP6 DUP3 PUSH2 0x229E JUMP JUMPDEST SWAP5 POP PUSH2 0x230E DUP4 PUSH2 0x22B2 JUMP JUMPDEST SWAP3 POP PUSH1 0x20 DUP11 ADD SWAP10 POP POP PUSH1 0x1 DUP2 ADD SWAP1 POP PUSH2 0x22EA JUMP JUMPDEST POP DUP3 SWAP8 POP DUP8 SWAP6 POP POP POP POP POP POP SWAP3 SWAP2 POP POP JUMP JUMPDEST PUSH1 0x0 PUSH1 0x20 DUP3 ADD SWAP1 POP DUP2 DUP2 SUB PUSH1 0x0 DUP4 ADD MSTORE PUSH2 0x234E DUP2 DUP5 PUSH2 0x22BF JUMP JUMPDEST SWAP1 POP SWAP3 SWAP2 POP POP JUMP JUMPDEST PUSH2 0x235F DUP2 PUSH2 0x1A67 JUMP JUMPDEST DUP2 EQ PUSH2 0x236A JUMPI PUSH1 0x0 DUP1 REVERT JUMPDEST POP JUMP JUMPDEST PUSH1 0x0 DUP2 CALLDATALOAD SWAP1 POP PUSH2 0x237C DUP2 PUSH2 0x2356 JUMP JUMPDEST SWAP3 SWAP2 POP POP JUMP JUMPDEST PUSH1 0x0 DUP1 PUSH1 0x40 DUP4 DUP6 SUB SLT ISZERO PUSH2 0x2399 JUMPI PUSH2 0x2398 PUSH2 0x19C7 JUMP JUMPDEST JUMPDEST PUSH1 0x0 PUSH2 0x23A7 DUP6 DUP3 DUP7 ADD PUSH2 0x19F2 JUMP JUMPDEST SWAP3 POP POP PUSH1 0x20 PUSH2 0x23B8 DUP6 DUP3 DUP7 ADD PUSH2 0x236D JUMP JUMPDEST SWAP2 POP POP SWAP3 POP SWAP3 SWAP1 POP JUMP JUMPDEST PUSH1 0x0 PUSH1 0x20 DUP3 DUP5 SUB SLT ISZERO PUSH2 0x23D8 JUMPI PUSH2 0x23D7 PUSH2 0x19C7 JUMP JUMPDEST JUMPDEST PUSH1 0x0 PUSH2 0x23E6 DUP5 DUP3 DUP6 ADD PUSH2 0x19F2 JUMP JUMPDEST SWAP2 POP POP SWAP3 SWAP2 POP POP JUMP JUMPDEST PUSH1 0x0 DUP3 DUP3 MSTORE PUSH1 0x20 DUP3 ADD SWAP1 POP SWAP3 SWAP2 POP POP JUMP JUMPDEST PUSH1 0x0 PUSH2 0x240B DUP3 PUSH2 0x210C JUMP JUMPDEST PUSH2 0x2415 DUP2 DUP6 PUSH2 0x23EF JUMP JUMPDEST SWAP4 POP PUSH2 0x2425 DUP2 DUP6 PUSH1 0x20 DUP7 ADD PUSH2 0x2128 JUMP JUMPDEST PUSH2 0x242E DUP2 PUSH2 0x1AAD JUMP JUMPDEST DUP5 ADD SWAP2 POP POP SWAP3 SWAP2 POP POP JUMP JUMPDEST PUSH2 0x2442 DUP2 PUSH2 0x21A9 JUMP JUMPDEST DUP3 MSTORE POP POP JUMP JUMPDEST PUSH1 0x0 PUSH2 0x120 DUP3 ADD SWAP1 POP DUP2 DUP2 SUB PUSH1 0x0 DUP4 ADD MSTORE PUSH2 0x2463 DUP2 DUP13 PUSH2 0x2400 JUMP JUMPDEST SWAP1 POP DUP2 DUP2 SUB PUSH1 0x20 DUP4 ADD MSTORE PUSH2 0x2477 DUP2 DUP12 PUSH2 0x2400 JUMP JUMPDEST SWAP1 POP DUP2 DUP2 SUB PUSH1 0x40 DUP4 ADD MSTORE PUSH2 0x248B DUP2 DUP11 PUSH2 0x2400 JUMP JUMPDEST SWAP1 POP DUP2 DUP2 SUB PUSH1 0x60 DUP4 ADD MSTORE PUSH2 0x249F DUP2 DUP10 PUSH2 0x2400 JUMP JUMPDEST SWAP1 POP PUSH2 0x24AE PUSH1 0x80 DUP4 ADD DUP9 PUSH2 0x1F5E JUMP JUMPDEST PUSH2 0x24BB PUSH1 0xA0 DUP4 ADD DUP8 PUSH2 0x1F5E JUMP JUMPDEST PUSH2 0x24C8 PUSH1 0xC0 DUP4 ADD DUP7 PUSH2 0x1F5E JUMP JUMPDEST PUSH2 0x24D5 PUSH1 0xE0 DUP4 ADD DUP6 PUSH2 0x1A79 JUMP JUMPDEST PUSH2 0x24E3 PUSH2 0x100 DUP4 ADD DUP5 PUSH2 0x2439 JUMP JUMPDEST SWAP11 SWAP10 POP POP POP POP POP POP POP POP POP POP JUMP JUMPDEST PUSH1 0x0 PUSH1 0x20 DUP3 ADD SWAP1 POP DUP2 DUP2 SUB PUSH1 0x0 DUP4 ADD MSTORE PUSH2 0x250B DUP2 DUP5 PUSH2 0x2400 JUMP JUMPDEST SWAP1 POP SWAP3 SWAP2 POP POP JUMP JUMPDEST PUSH2 0x251C DUP2 PUSH2 0x1FB4 JUMP JUMPDEST DUP3 MSTORE POP POP JUMP JUMPDEST PUSH1 0x0 PUSH1 0x20 DUP3 ADD SWAP1 POP PUSH2 0x2537 PUSH1 0x0 DUP4 ADD DUP5 PUSH2 0x2513 JUMP JUMPDEST SWAP3 SWAP2 POP POP JUMP JUMPDEST PUSH32 0x53746172742064617465206D75737420626520696E2074686520667574757265 PUSH1 0x0 DUP3 ADD MSTORE POP JUMP JUMPDEST PUSH1 0x0 PUSH2 0x2573 PUSH1 0x20 DUP4 PUSH2 0x23EF JUMP JUMPDEST SWAP2 POP PUSH2 0x257E DUP3 PUSH2 0x253D JUMP JUMPDEST PUSH1 0x20 DUP3 ADD SWAP1 POP SWAP2 SWAP1 POP JUMP JUMPDEST PUSH1 0x0 PUSH1 0x20 DUP3 ADD SWAP1 POP DUP2 DUP2 SUB PUSH1 0x0 DUP4 ADD MSTORE PUSH2 0x25A2 DUP2 PUSH2 0x2566 JUMP JUMPDEST SWAP1 POP SWAP2 SWAP1 POP JUMP JUMPDEST PUSH32 0x5175657374696F6E20636F756E74206D757374206265206265747765656E2035 PUSH1 0x0 DUP3 ADD MSTORE PUSH32 0x20616E6420313500000000000000000000000000000000000000000000000000 PUSH1 0x20 DUP3 ADD MSTORE POP JUMP JUMPDEST PUSH1 0x0 PUSH2 0x2605 PUSH1 0x27 DUP4 PUSH2 0x23EF JUMP JUMPDEST SWAP2 POP PUSH2 0x2610 DUP3 PUSH2 0x25A9 JUMP JUMPDEST PUSH1 0x40 DUP3 ADD SWAP1 POP SWAP2 SWAP1 POP JUMP JUMPDEST PUSH1 0x0 PUSH1 0x20 DUP3 ADD SWAP1 POP DUP2 DUP2 SUB PUSH1 0x0 DUP4 ADD MSTORE PUSH2 0x2634 DUP2 PUSH2 0x25F8 JUMP JUMPDEST SWAP1 POP SWAP2 SWAP1 POP JUMP JUMPDEST PUSH32 0x4E487B7100000000000000000000000000000000000000000000000000000000 PUSH1 0x0 MSTORE PUSH1 0x22 PUSH1 0x4 MSTORE PUSH1 0x24 PUSH1 0x0 REVERT JUMPDEST PUSH1 0x0 PUSH1 0x2 DUP3 DIV SWAP1 POP PUSH1 0x1 DUP3 AND DUP1 PUSH2 0x2682 JUMPI PUSH1 0x7F DUP3 AND SWAP2 POP JUMPDEST PUSH1 0x20 DUP3 LT DUP2 SUB PUSH2 0x2695 JUMPI PUSH2 0x2694 PUSH2 0x263B JUMP JUMPDEST JUMPDEST POP SWAP2 SWAP1 POP JUMP JUMPDEST PUSH1 0x0 DUP2 SWAP1 POP DUP2 PUSH1 0x0 MSTORE PUSH1 0x20 PUSH1 0x0 KECCAK256 SWAP1 POP SWAP2 SWAP1 POP JUMP JUMPDEST PUSH1 0x0 PUSH1 0x20 PUSH1 0x1F DUP4 ADD DIV SWAP1 POP SWAP2 SWAP1 POP JUMP JUMPDEST PUSH1 0x0 DUP3 DUP3 SHL SWAP1 POP SWAP3 SWAP2 POP POP JUMP JUMPDEST PUSH1 0x0 PUSH1 0x8 DUP4 MUL PUSH2 0x26FD PUSH32 0xFFFFFFFFFFFFFFFFFFFFFFFFFFFFFFFFFFFFFFFFFFFFFFFFFFFFFFFFFFFFFFFF DUP3 PUSH2 0x26C0 JUMP JUMPDEST PUSH2 0x2707 DUP7 DUP4 PUSH2 0x26C0 JUMP JUMPDEST SWAP6 POP DUP1 NOT DUP5 AND SWAP4 POP DUP1 DUP7 AND DUP5 OR SWAP3 POP POP POP SWAP4 SWAP3 POP POP POP JUMP JUMPDEST PUSH1 0x0 DUP2 SWAP1 POP SWAP2 SWAP1 POP JUMP JUMPDEST PUSH1 0x0 PUSH2 0x2744 PUSH2 0x273F PUSH2 0x273A DUP5 PUSH2 0x19D1 JUMP JUMPDEST PUSH2 0x271F JUMP JUMPDEST PUSH2 0x19D1 JUMP JUMPDEST SWAP1 POP SWAP2 SWAP1 POP JUMP JUMPDEST PUSH1 0x0 DUP2 SWAP1 POP SWAP2 SWAP1 POP JUMP JUMPDEST PUSH2 0x275E DUP4 PUSH2 0x2729 JUMP JUMPDEST PUSH2 0x2772 PUSH2 0x276A DUP3 PUSH2 0x274B JUMP JUMPDEST DUP5 DUP5 SLOAD PUSH2 0x26CD JUMP JUMPDEST DUP3 SSTORE POP POP POP POP JUMP JUMPDEST PUSH1 0x0 SWAP1 JUMP JUMPDEST PUSH2 0x2787 PUSH2 0x277A JUMP JUMPDEST PUSH2 0x2792 DUP2 DUP5 DUP5 PUSH2 0x2755 JUMP JUMPDEST POP POP POP JUMP JUMPDEST JUMPDEST DUP2 DUP2 LT ISZERO PUSH2 0x27B6 JUMPI PUSH2 0x27AB PUSH1 0x0 DUP3 PUSH2 0x277F JUMP JUMPDEST PUSH1 0x1 DUP2 ADD SWAP1 POP PUSH2 0x2798 JUMP JUMPDEST POP POP JUMP JUMPDEST PUSH1 0x1F DUP3 GT ISZERO PUSH2 0x27FB JUMPI PUSH2 0x27CC DUP2 PUSH2 0x269B JUMP JUMPDEST PUSH2 0x27D5 DUP5 PUSH2 0x26B0 JUMP JUMPDEST DUP2 ADD PUSH1 0x20 DUP6 LT ISZERO PUSH2 0x27E4 JUMPI DUP2 SWAP1 POP JUMPDEST PUSH2 0x27F8 PUSH2 0x27F0 DUP6 PUSH2 0x26B0 JUMP JUMPDEST DUP4 ADD DUP3 PUSH2 0x2797 JUMP JUMPDEST POP POP JUMPDEST POP POP POP JUMP JUMPDEST PUSH1 0x0 DUP3 DUP3 SHR SWAP1 POP SWAP3 SWAP2 POP POP JUMP JUMPDEST PUSH1 0x0 PUSH2 0x281E PUSH1 0x0 NOT DUP5 PUSH1 0x8 MUL PUSH2 0x2800 JUMP JUMPDEST NOT DUP1 DUP4 AND SWAP2 POP POP SWAP3 SWAP2 POP POP JUMP JUMPDEST PUSH1 0x0 PUSH2 0x2837 DUP4 DUP4 PUSH2 0x280D JUMP JUMPDEST SWAP2 POP DUP3 PUSH1 0x2 MUL DUP3 OR SWAP1 POP SWAP3 SWAP2 POP POP JUMP JUMPDEST PUSH2 0x2850 DUP3 PUSH2 0x210C JUMP JUMPDEST PUSH8 0xFFFFFFFFFFFFFFFF DUP2 GT ISZERO PUSH2 0x2869 JUMPI PUSH2 0x2868 PUSH2 0x1ABE JUMP JUMPDEST JUMPDEST PUSH2 0x2873 DUP3 SLOAD PUSH2 0x266A JUMP JUMPDEST PUSH2 0x287E DUP3 DUP3 DUP6 PUSH2 0x27BA JUMP JUMPDEST PUSH1 0x0 PUSH1 0x20 SWAP1 POP PUSH1 0x1F DUP4 GT PUSH1 0x1 DUP2 EQ PUSH2 0x28B1 JUMPI PUSH1 0x0 DUP5 ISZERO PUSH2 0x289F JUMPI DUP3 DUP8 ADD MLOAD SWAP1 POP JUMPDEST PUSH2 0x28A9 DUP6 DUP3 PUSH2 0x282B JUMP JUMPDEST DUP7 SSTORE POP PUSH2 0x2911 JUMP JUMPDEST PUSH1 0x1F NOT DUP5 AND PUSH2 0x28BF DUP7 PUSH2 0x269B JUMP JUMPDEST PUSH1 0x0 JUMPDEST DUP3 DUP2 LT ISZERO PUSH2 0x28E7 JUMPI DUP5 DUP10 ADD MLOAD DUP3 SSTORE PUSH1 0x1 DUP3 ADD SWAP2 POP PUSH1 0x20 DUP6 ADD SWAP5 POP PUSH1 0x20 DUP2 ADD SWAP1 POP PUSH2 0x28C2 JUMP JUMPDEST DUP7 DUP4 LT ISZERO PUSH2 0x2904 JUMPI DUP5 DUP10 ADD MLOAD PUSH2 0x2900 PUSH1 0x1F DUP10 AND DUP3 PUSH2 0x280D JUMP JUMPDEST DUP4 SSTORE POP JUMPDEST PUSH1 0x1 PUSH1 0x2 DUP9 MUL ADD DUP9 SSTORE POP POP POP JUMPDEST POP POP POP POP POP POP JUMP JUMPDEST PUSH32 0x4E487B7100000000000000000000000000000000000000000000000000000000 PUSH1 0x0 MSTORE PUSH1 0x32 PUSH1 0x4 MSTORE PUSH1 0x24 PUSH1 0x0 REVERT JUMPDEST PUSH32 0x4E487B7100000000000000000000000000000000000000000000000000000000 PUSH1 0x0 MSTORE PUSH1 0x11 PUSH1 0x4 MSTORE PUSH1 0x24 PUSH1 0x0 REVERT JUMPDEST PUSH1 0x0 PUSH2 0x2982 DUP3 PUSH2 0x19D1 JUMP JUMPDEST SWAP2 POP PUSH32 0xFFFFFFFFFFFFFFFFFFFFFFFFFFFFFFFFFFFFFFFFFFFFFFFFFFFFFFFFFFFFFFFF DUP3 SUB PUSH2 0x29B4 JUMPI PUSH2 0x29B3 PUSH2 0x2948 JUMP JUMPDEST JUMPDEST PUSH1 0x1 DUP3 ADD SWAP1 POP SWAP2 SWAP1 POP JUMP JUMPDEST PUSH1 0x0 PUSH1 0x40 DUP3 ADD SWAP1 POP PUSH2 0x29D4 PUSH1 0x0 DUP4 ADD DUP6 PUSH2 0x1F5E JUMP JUMPDEST PUSH2 0x29E1 PUSH1 0x20 DUP4 ADD DUP5 PUSH2 0x1A79 JUMP JUMPDEST SWAP4 SWAP3 POP POP POP JUMP JUMPDEST PUSH1 0x0 PUSH1 0x40 DUP3 ADD SWAP1 POP PUSH2 0x29FD PUSH1 0x0 DUP4 ADD DUP6 PUSH2 0x1F5E JUMP JUMPDEST PUSH2 0x2A0A PUSH1 0x20 DUP4 ADD DUP5 PUSH2 0x1F5E JUMP JUMPDEST SWAP4 SWAP3 POP POP POP JUMP JUMPDEST PUSH32 0x5175697A20686173206E6F742073746172746564207965740000000000000000 PUSH1 0x0 DUP3 ADD MSTORE POP JUMP JUMPDEST PUSH1 0x0 PUSH2 0x2A47 PUSH1 0x18 DUP4 PUSH2 0x23EF JUMP JUMPDEST SWAP2 POP PUSH2 0x2A52 DUP3 PUSH2 0x2A11 JUMP JUMPDEST PUSH1 0x20 DUP3 ADD SWAP1 POP SWAP2 SWAP1 POP JUMP JUMPDEST PUSH1 0x0 PUSH1 0x20 DUP3 ADD SWAP1 POP DUP2 DUP2 SUB PUSH1 0x0 DUP4 ADD MSTORE PUSH2 0x2A76 DUP2 PUSH2 0x2A3A JUMP JUMPDEST SWAP1 POP SWAP2 SWAP1 POP JUMP JUMPDEST PUSH1 0x0 PUSH2 0x2A88 DUP3 PUSH2 0x19D1 JUMP JUMPDEST SWAP2 POP PUSH2 0x2A93 DUP4 PUSH2 0x19D1 JUMP JUMPDEST SWAP3 POP DUP3 DUP3 ADD SWAP1 POP DUP1 DUP3 GT ISZERO PUSH2 0x2AAB JUMPI PUSH2 0x2AAA PUSH2 0x2948 JUMP JUMPDEST JUMPDEST SWAP3 SWAP2 POP POP JUMP JUMPDEST PUSH32 0x5175697A2068617320616C726561647920656E64656400000000000000000000 PUSH1 0x0 DUP3 ADD MSTORE POP JUMP JUMPDEST PUSH1 0x0 PUSH2 0x2AE7 PUSH1 0x16 DUP4 PUSH2 0x23EF JUMP JUMPDEST SWAP2 POP PUSH2 0x2AF2 DUP3 PUSH2 0x2AB1 JUMP JUMPDEST PUSH1 0x20 DUP3 ADD SWAP1 POP SWAP2 SWAP1 POP JUMP JUMPDEST PUSH1 0x0 PUSH1 0x20 DUP3 ADD SWAP1 POP DUP2 DUP2 SUB PUSH1 0x0 DUP4 ADD MSTORE PUSH2 0x2B16 DUP2 PUSH2 0x2ADA JUMP JUMPDEST SWAP1 POP SWAP2 SWAP1 POP JUMP JUMPDEST PUSH32 0x496E76616C6964206E756D626572206F6620616E737765727300000000000000 PUSH1 0x0 DUP3 ADD MSTORE POP JUMP JUMPDEST PUSH1 0x0 PUSH2 0x2B53 PUSH1 0x19 DUP4 PUSH2 0x23EF JUMP JUMPDEST SWAP2 POP PUSH2 0x2B5E DUP3 PUSH2 0x2B1D JUMP JUMPDEST PUSH1 0x20 DUP3 ADD SWAP1 POP SWAP2 SWAP1 POP JUMP JUMPDEST PUSH1 0x0 PUSH1 0x20 DUP3 ADD SWAP1 POP DUP2 DUP2 SUB PUSH1 0x0 DUP4 ADD MSTORE PUSH2 0x2B82 DUP2 PUSH2 0x2B46 JUMP JUMPDEST SWAP1 POP SWAP2 SWAP1 POP JUMP JUMPDEST PUSH32 0x4F6E6C79207468652063726561746F722063616E20696E7365727420636F7272 PUSH1 0x0 DUP3 ADD MSTORE PUSH32 0x65637420616E7377657273000000000000000000000000000000000000000000 PUSH1 0x20 DUP3 ADD MSTORE POP JUMP JUMPDEST PUSH1 0x0 PUSH2 0x2BE5 PUSH1 0x2B DUP4 PUSH2 0x23EF JUMP JUMPDEST SWAP2 POP PUSH2 0x2BF0 DUP3 PUSH2 0x2B89 JUMP JUMPDEST PUSH1 0x40 DUP3 ADD SWAP1 POP SWAP2 SWAP1 POP JUMP JUMPDEST PUSH1 0x0 PUSH1 0x20 DUP3 ADD SWAP1 POP DUP2 DUP2 SUB PUSH1 0x0 DUP4 ADD MSTORE PUSH2 0x2C14 DUP2 PUSH2 0x2BD8 JUMP JUMPDEST SWAP1 POP SWAP2 SWAP1 POP JUMP JUMPDEST PUSH32 0x5175697A206973207374696C6C206F6E676F696E670000000000000000000000 PUSH1 0x0 DUP3 ADD MSTORE POP JUMP JUMPDEST PUSH1 0x0 PUSH2 0x2C51 PUSH1 0x15 DUP4 PUSH2 0x23EF JUMP JUMPDEST SWAP2 POP PUSH2 0x2C5C DUP3 PUSH2 0x2C1B JUMP JUMPDEST PUSH1 0x20 DUP3 ADD SWAP1 POP SWAP2 SWAP1 POP JUMP JUMPDEST PUSH1 0x0 PUSH1 0x20 DUP3 ADD SWAP1 POP DUP2 DUP2 SUB PUSH1 0x0 DUP4 ADD MSTORE PUSH2 0x2C80 DUP2 PUSH2 0x2C44 JUMP JUMPDEST SWAP1 POP SWAP2 SWAP1 POP JUMP JUMPDEST PUSH32 0x436F727265637420616E737765727320616C726561647920696E736572746564 PUSH1 0x0 DUP3 ADD MSTORE POP JUMP JUMPDEST PUSH1 0x0 PUSH2 0x2CBD PUSH1 0x20 DUP4 PUSH2 0x23EF JUMP JUMPDEST SWAP2 POP PUSH2 0x2CC8 DUP3 PUSH2 0x2C87 JUMP JUMPDEST PUSH1 0x20 DUP3 ADD SWAP1 POP SWAP2 SWAP1 POP JUMP JUMPDEST PUSH1 0x0 PUSH1 0x20 DUP3 ADD SWAP1 POP DUP2 DUP2 SUB PUSH1 0x0 DUP4 ADD MSTORE PUSH2 0x2CEC DUP2 PUSH2 0x2CB0 JUMP JUMPDEST SWAP1 POP SWAP2 SWAP1 POP JUMP JUMPDEST PUSH32 0x496E76616C6964206E756D626572206F6620636F727265637420616E73776572 PUSH1 0x0 DUP3 ADD MSTORE PUSH32 0x7300000000000000000000000000000000000000000000000000000000000000 PUSH1 0x20 DUP3 ADD MSTORE POP JUMP JUMPDEST PUSH1 0x0 PUSH2 0x2D4F PUSH1 0x21 DUP4 PUSH2 0x23EF JUMP JUMPDEST SWAP2 POP PUSH2 0x2D5A DUP3 PUSH2 0x2CF3 JUMP JUMPDEST PUSH1 0x40 DUP3 ADD SWAP1 POP SWAP2 SWAP1 POP JUMP JUMPDEST PUSH1 0x0 PUSH1 0x20 DUP3 ADD SWAP1 POP DUP2 DUP2 SUB PUSH1 0x0 DUP4 ADD MSTORE PUSH2 0x2D7E DUP2 PUSH2 0x2D42 JUMP JUMPDEST SWAP1 POP SWAP2 SWAP1 POP JUMP JUMPDEST PUSH32 0x436F727265637420616E7377657273206E6F7420696E73657274656420796574 PUSH1 0x0 DUP3 ADD MSTORE POP JUMP JUMPDEST PUSH1 0x0 PUSH2 0x2DBB PUSH1 0x20 DUP4 PUSH2 0x23EF JUMP JUMPDEST SWAP2 POP PUSH2 0x2DC6 DUP3 PUSH2 0x2D85 JUMP JUMPDEST PUSH1 0x20 DUP3 ADD SWAP1 POP SWAP2 SWAP1 POP JUMP JUMPDEST PUSH1 0x0 PUSH1 0x20 DUP3 ADD SWAP1 POP DUP2 DUP2 SUB PUSH1 0x0 DUP4 ADD MSTORE PUSH2 0x2DEA DUP2 PUSH2 0x2DAE JUMP JUMPDEST SWAP1 POP SWAP2 SWAP1 POP JUMP INVALID LOG2 PUSH5 0x6970667358 0x22 SLT KECCAK256 0xDC 0xAD 0xF9 SHL 0xC7 AND GT DUP5 0xCE DIV DUP12 CALLCODE PUSH8 0xE0AF2CE69C89BF51 0xAB PUSH17 0x5EEAD292D07B29D36C64736F6C63430008 SLT STOP CALLER "
		},
		"gasEstimates": {
			"creation": {
				"codeDepositCost": "2363000",
				"executionCost": "2538",
				"totalCost": "2365538"
			},
			"external": {
				"correctAnswers(uint256,uint256)": "infinite",
				"createQuiz(string,string,string,string,(string,string[4])[],uint256,uint256)": "infinite",
				"getAllQuizzes()": "infinite",
				"getScore(uint256,address)": "infinite",
				"getUpcomingQuizzes()": "infinite",
				"insertCorrectAnswers(uint256,uint8[])": "infinite",
				"quizAnswers(uint256,uint256)": "infinite",
				"quizCount()": "2474",
				"quizQuestions(uint256,uint256)": "infinite",
				"quizzes(uint256)": "infinite",
				"submitAnswers(uint256,uint8[])": "infinite"
			}
		},
		"methodIdentifiers": {
			"correctAnswers(uint256,uint256)": "fdcaf762",
			"createQuiz(string,string,string,string,(string,string[4])[],uint256,uint256)": "145e856a",
			"getAllQuizzes()": "6a4af0fa",
			"getScore(uint256,address)": "80f2ff25",
			"getUpcomingQuizzes()": "a5759814",
			"insertCorrectAnswers(uint256,uint8[])": "461c3c9b",
			"quizAnswers(uint256,uint256)": "1246d1c3",
			"quizCount()": "2e8497cf",
			"quizQuestions(uint256,uint256)": "a5c499dd",
			"quizzes(uint256)": "88409afa",
			"submitAnswers(uint256,uint8[])": "30b81400"
		}
	},
	"abi": [
		{
			"anonymous": false,
			"inputs": [
				{
					"indexed": false,
					"internalType": "uint256",
					"name": "quizId",
					"type": "uint256"
				}
			],
			"name": "CorrectAnswersInserted",
			"type": "event"
		},
		{
			"anonymous": false,
			"inputs": [
				{
					"indexed": false,
					"internalType": "uint256",
					"name": "quizId",
					"type": "uint256"
				},
				{
					"indexed": false,
					"internalType": "uint256",
					"name": "questionCount",
					"type": "uint256"
				}
			],
			"name": "QuestionsAdded",
			"type": "event"
		},
		{
			"anonymous": false,
			"inputs": [
				{
					"indexed": false,
					"internalType": "uint256",
					"name": "quizId",
					"type": "uint256"
				},
				{
					"indexed": false,
					"internalType": "address",
					"name": "user",
					"type": "address"
				}
			],
			"name": "QuizAnswered",
			"type": "event"
		},
		{
			"anonymous": false,
			"inputs": [
				{
					"indexed": false,
					"internalType": "uint256",
					"name": "quizId",
					"type": "uint256"
				},
				{
					"indexed": false,
					"internalType": "address",
					"name": "creator",
					"type": "address"
				}
			],
			"name": "QuizCreated",
			"type": "event"
		},
		{
			"inputs": [
				{
					"internalType": "uint256",
					"name": "",
					"type": "uint256"
				},
				{
					"internalType": "uint256",
					"name": "",
					"type": "uint256"
				}
			],
			"name": "correctAnswers",
			"outputs": [
				{
					"internalType": "uint8",
					"name": "",
					"type": "uint8"
				}
			],
			"stateMutability": "view",
			"type": "function"
		},
		{
			"inputs": [
				{
					"internalType": "string",
					"name": "_title",
					"type": "string"
				},
				{
					"internalType": "string",
					"name": "_logoURL",
					"type": "string"
				},
				{
					"internalType": "string",
					"name": "_coverURL",
					"type": "string"
				},
				{
					"internalType": "string",
					"name": "_description",
					"type": "string"
				},
				{
					"components": [
						{
							"internalType": "string",
							"name": "question",
							"type": "string"
						},
						{
							"internalType": "string[4]",
							"name": "options",
							"type": "string[4]"
						}
					],
					"internalType": "struct Quiz.Question[]",
					"name": "_questions",
					"type": "tuple[]"
				},
				{
					"internalType": "uint256",
					"name": "_startDate",
					"type": "uint256"
				},
				{
					"internalType": "uint256",
					"name": "_duration",
					"type": "uint256"
				}
			],
			"name": "createQuiz",
			"outputs": [],
			"stateMutability": "nonpayable",
			"type": "function"
		},
		{
			"inputs": [],
			"name": "getAllQuizzes",
			"outputs": [
				{
					"components": [
						{
							"internalType": "string",
							"name": "title",
							"type": "string"
						},
						{
							"internalType": "string",
							"name": "logoURL",
							"type": "string"
						},
						{
							"internalType": "string",
							"name": "coverURL",
							"type": "string"
						},
						{
							"internalType": "string",
							"name": "description",
							"type": "string"
						},
						{
							"internalType": "uint256",
							"name": "questionCount",
							"type": "uint256"
						},
						{
							"internalType": "uint256",
							"name": "startDate",
							"type": "uint256"
						},
						{
							"internalType": "uint256",
							"name": "duration",
							"type": "uint256"
						},
						{
							"internalType": "address",
							"name": "creator",
							"type": "address"
						},
						{
							"internalType": "bool",
							"name": "answersInserted",
							"type": "bool"
						}
					],
					"internalType": "struct Quiz.QuizStruct[]",
					"name": "",
					"type": "tuple[]"
				}
			],
			"stateMutability": "view",
			"type": "function"
		},
		{
			"inputs": [
				{
					"internalType": "uint256",
					"name": "_quizId",
					"type": "uint256"
				},
				{
					"internalType": "address",
					"name": "_user",
					"type": "address"
				}
			],
			"name": "getScore",
			"outputs": [
				{
					"internalType": "uint256",
					"name": "",
					"type": "uint256"
				}
			],
			"stateMutability": "view",
			"type": "function"
		},
		{
			"inputs": [],
			"name": "getUpcomingQuizzes",
			"outputs": [
				{
					"components": [
						{
							"internalType": "string",
							"name": "title",
							"type": "string"
						},
						{
							"internalType": "string",
							"name": "logoURL",
							"type": "string"
						},
						{
							"internalType": "string",
							"name": "coverURL",
							"type": "string"
						},
						{
							"internalType": "string",
							"name": "description",
							"type": "string"
						},
						{
							"internalType": "uint256",
							"name": "questionCount",
							"type": "uint256"
						},
						{
							"internalType": "uint256",
							"name": "startDate",
							"type": "uint256"
						},
						{
							"internalType": "uint256",
							"name": "duration",
							"type": "uint256"
						},
						{
							"internalType": "address",
							"name": "creator",
							"type": "address"
						},
						{
							"internalType": "bool",
							"name": "answersInserted",
							"type": "bool"
						}
					],
					"internalType": "struct Quiz.QuizStruct[]",
					"name": "",
					"type": "tuple[]"
				}
			],
			"stateMutability": "view",
			"type": "function"
		},
		{
			"inputs": [
				{
					"internalType": "uint256",
					"name": "_quizId",
					"type": "uint256"
				},
				{
					"internalType": "uint8[]",
					"name": "_correctAnswers",
					"type": "uint8[]"
				}
			],
			"name": "insertCorrectAnswers",
			"outputs": [],
			"stateMutability": "nonpayable",
			"type": "function"
		},
		{
			"inputs": [
				{
					"internalType": "uint256",
					"name": "",
					"type": "uint256"
				},
				{
					"internalType": "uint256",
					"name": "",
					"type": "uint256"
				}
			],
			"name": "quizAnswers",
			"outputs": [
				{
					"internalType": "address",
					"name": "user",
					"type": "address"
				}
			],
			"stateMutability": "view",
			"type": "function"
		},
		{
			"inputs": [],
			"name": "quizCount",
			"outputs": [
				{
					"internalType": "uint256",
					"name": "",
					"type": "uint256"
				}
			],
			"stateMutability": "view",
			"type": "function"
		},
		{
			"inputs": [
				{
					"internalType": "uint256",
					"name": "",
					"type": "uint256"
				},
				{
					"internalType": "uint256",
					"name": "",
					"type": "uint256"
				}
			],
			"name": "quizQuestions",
			"outputs": [
				{
					"internalType": "string",
					"name": "question",
					"type": "string"
				}
			],
			"stateMutability": "view",
			"type": "function"
		},
		{
			"inputs": [
				{
					"internalType": "uint256",
					"name": "",
					"type": "uint256"
				}
			],
			"name": "quizzes",
			"outputs": [
				{
					"internalType": "string",
					"name": "title",
					"type": "string"
				},
				{
					"internalType": "string",
					"name": "logoURL",
					"type": "string"
				},
				{
					"internalType": "string",
					"name": "coverURL",
					"type": "string"
				},
				{
					"internalType": "string",
					"name": "description",
					"type": "string"
				},
				{
					"internalType": "uint256",
					"name": "questionCount",
					"type": "uint256"
				},
				{
					"internalType": "uint256",
					"name": "startDate",
					"type": "uint256"
				},
				{
					"internalType": "uint256",
					"name": "duration",
					"type": "uint256"
				},
				{
					"internalType": "address",
					"name": "creator",
					"type": "address"
				},
				{
					"internalType": "bool",
					"name": "answersInserted",
					"type": "bool"
				}
			],
			"stateMutability": "view",
			"type": "function"
		},
		{
			"inputs": [
				{
					"internalType": "uint256",
					"name": "_quizId",
					"type": "uint256"
				},
				{
					"internalType": "uint8[]",
					"name": "_answers",
					"type": "uint8[]"
				}
			],
			"name": "submitAnswers",
			"outputs": [],
			"stateMutability": "nonpayable",
			"type": "function"
		}
	]
}